{
  "contractName": "NFTStackSmartContract",
  "abi": [
    {
      "inputs": [
        {
          "internalType": "string",
          "name": "baseURI",
          "type": "string"
        }
      ],
      "stateMutability": "nonpayable",
      "type": "constructor"
    },
    {
      "anonymous": false,
      "inputs": [
        {
          "indexed": true,
          "internalType": "address",
          "name": "owner",
          "type": "address"
        },
        {
          "indexed": true,
          "internalType": "address",
          "name": "approved",
          "type": "address"
        },
        {
          "indexed": true,
          "internalType": "uint256",
          "name": "tokenId",
          "type": "uint256"
        }
      ],
      "name": "Approval",
      "type": "event"
    },
    {
      "anonymous": false,
      "inputs": [
        {
          "indexed": true,
          "internalType": "address",
          "name": "owner",
          "type": "address"
        },
        {
          "indexed": true,
          "internalType": "address",
          "name": "operator",
          "type": "address"
        },
        {
          "indexed": false,
          "internalType": "bool",
          "name": "approved",
          "type": "bool"
        }
      ],
      "name": "ApprovalForAll",
      "type": "event"
    },
    {
      "anonymous": false,
      "inputs": [
        {
          "indexed": false,
          "internalType": "uint256",
          "name": "tokenId",
          "type": "uint256"
        },
        {
          "indexed": false,
          "internalType": "address",
          "name": "sender",
          "type": "address"
        }
      ],
      "name": "AssetMinted",
      "type": "event"
    },
    {
      "anonymous": false,
      "inputs": [
        {
          "indexed": true,
          "internalType": "address",
          "name": "previousOwner",
          "type": "address"
        },
        {
          "indexed": true,
          "internalType": "address",
          "name": "newOwner",
          "type": "address"
        }
      ],
      "name": "OwnershipTransferred",
      "type": "event"
    },
    {
      "anonymous": false,
      "inputs": [
        {
          "indexed": false,
          "internalType": "bool",
          "name": "isMintActive",
          "type": "bool"
        }
      ],
      "name": "SaleActivation",
      "type": "event"
    },
    {
      "anonymous": false,
      "inputs": [
        {
          "indexed": true,
          "internalType": "address",
          "name": "from",
          "type": "address"
        },
        {
          "indexed": true,
          "internalType": "address",
          "name": "to",
          "type": "address"
        },
        {
          "indexed": true,
          "internalType": "uint256",
          "name": "tokenId",
          "type": "uint256"
        }
      ],
      "name": "Transfer",
      "type": "event"
    },
    {
      "inputs": [],
      "name": "allowListMaxMint",
      "outputs": [
        {
          "internalType": "uint256",
          "name": "",
          "type": "uint256"
        }
      ],
      "stateMutability": "view",
      "type": "function"
    },
    {
      "inputs": [
        {
          "internalType": "address",
          "name": "to",
          "type": "address"
        },
        {
          "internalType": "uint256",
          "name": "tokenId",
          "type": "uint256"
        }
      ],
      "name": "approve",
      "outputs": [],
      "stateMutability": "nonpayable",
      "type": "function"
    },
    {
      "inputs": [
        {
          "internalType": "address",
          "name": "owner",
          "type": "address"
        }
      ],
      "name": "balanceOf",
      "outputs": [
        {
          "internalType": "uint256",
          "name": "",
          "type": "uint256"
        }
      ],
      "stateMutability": "view",
      "type": "function"
    },
    {
      "inputs": [
        {
          "internalType": "uint256",
          "name": "tokenId",
          "type": "uint256"
        }
      ],
      "name": "getApproved",
      "outputs": [
        {
          "internalType": "address",
          "name": "",
          "type": "address"
        }
      ],
      "stateMutability": "view",
      "type": "function"
    },
    {
      "inputs": [
        {
          "internalType": "address",
          "name": "owner",
          "type": "address"
        },
        {
          "internalType": "address",
          "name": "operator",
          "type": "address"
        }
      ],
      "name": "isApprovedForAll",
      "outputs": [
        {
          "internalType": "bool",
          "name": "",
          "type": "bool"
        }
      ],
      "stateMutability": "view",
      "type": "function"
    },
    {
      "inputs": [],
      "name": "isClosedMintForever",
      "outputs": [
        {
          "internalType": "bool",
          "name": "",
          "type": "bool"
        }
      ],
      "stateMutability": "view",
      "type": "function"
    },
    {
      "inputs": [],
      "name": "isMintActive",
      "outputs": [
        {
          "internalType": "bool",
          "name": "",
          "type": "bool"
        }
      ],
      "stateMutability": "view",
      "type": "function"
    },
    {
      "inputs": [],
      "name": "isPreSaleMintActive",
      "outputs": [
        {
          "internalType": "bool",
          "name": "",
          "type": "bool"
        }
      ],
      "stateMutability": "view",
      "type": "function"
    },
    {
      "inputs": [],
      "name": "maximumAllowedTokensPerPurchase",
      "outputs": [
        {
          "internalType": "uint256",
          "name": "",
          "type": "uint256"
        }
      ],
      "stateMutability": "view",
      "type": "function"
    },
    {
      "inputs": [],
      "name": "maximumAllowedTokensPerWallet",
      "outputs": [
        {
          "internalType": "uint256",
          "name": "",
          "type": "uint256"
        }
      ],
      "stateMutability": "view",
      "type": "function"
    },
    {
      "inputs": [],
      "name": "maximumMintSupply",
      "outputs": [
        {
          "internalType": "uint256",
          "name": "",
          "type": "uint256"
        }
      ],
      "stateMutability": "view",
      "type": "function"
    },
    {
      "inputs": [],
      "name": "mintPrice",
      "outputs": [
        {
          "internalType": "uint256",
          "name": "",
          "type": "uint256"
        }
      ],
      "stateMutability": "view",
      "type": "function"
    },
    {
      "inputs": [],
      "name": "name",
      "outputs": [
        {
          "internalType": "string",
          "name": "",
          "type": "string"
        }
      ],
      "stateMutability": "view",
      "type": "function"
    },
    {
      "inputs": [],
      "name": "owner",
      "outputs": [
        {
          "internalType": "address",
          "name": "",
          "type": "address"
        }
      ],
      "stateMutability": "view",
      "type": "function"
    },
    {
      "inputs": [
        {
          "internalType": "uint256",
          "name": "tokenId",
          "type": "uint256"
        }
      ],
      "name": "ownerOf",
      "outputs": [
        {
          "internalType": "address",
          "name": "",
          "type": "address"
        }
      ],
      "stateMutability": "view",
      "type": "function"
    },
    {
      "inputs": [],
      "name": "preSaleMintPrice",
      "outputs": [
        {
          "internalType": "uint256",
          "name": "",
          "type": "uint256"
        }
      ],
      "stateMutability": "view",
      "type": "function"
    },
    {
      "inputs": [],
      "name": "renounceOwnership",
      "outputs": [],
      "stateMutability": "nonpayable",
      "type": "function"
    },
    {
      "inputs": [
        {
          "internalType": "address",
          "name": "from",
          "type": "address"
        },
        {
          "internalType": "address",
          "name": "to",
          "type": "address"
        },
        {
          "internalType": "uint256",
          "name": "tokenId",
          "type": "uint256"
        }
      ],
      "name": "safeTransferFrom",
      "outputs": [],
      "stateMutability": "nonpayable",
      "type": "function"
    },
    {
      "inputs": [
        {
          "internalType": "address",
          "name": "from",
          "type": "address"
        },
        {
          "internalType": "address",
          "name": "to",
          "type": "address"
        },
        {
          "internalType": "uint256",
          "name": "tokenId",
          "type": "uint256"
        },
        {
          "internalType": "bytes",
          "name": "_data",
          "type": "bytes"
        }
      ],
      "name": "safeTransferFrom",
      "outputs": [],
      "stateMutability": "nonpayable",
      "type": "function"
    },
    {
      "inputs": [
        {
          "internalType": "address",
          "name": "operator",
          "type": "address"
        },
        {
          "internalType": "bool",
          "name": "approved",
          "type": "bool"
        }
      ],
      "name": "setApprovalForAll",
      "outputs": [],
      "stateMutability": "nonpayable",
      "type": "function"
    },
    {
      "inputs": [
        {
          "internalType": "bytes4",
          "name": "interfaceId",
          "type": "bytes4"
        }
      ],
      "name": "supportsInterface",
      "outputs": [
        {
          "internalType": "bool",
          "name": "",
          "type": "bool"
        }
      ],
      "stateMutability": "view",
      "type": "function"
    },
    {
      "inputs": [],
      "name": "symbol",
      "outputs": [
        {
          "internalType": "string",
          "name": "",
          "type": "string"
        }
      ],
      "stateMutability": "view",
      "type": "function"
    },
    {
      "inputs": [
        {
          "internalType": "uint256",
          "name": "index",
          "type": "uint256"
        }
      ],
      "name": "tokenByIndex",
      "outputs": [
        {
          "internalType": "uint256",
          "name": "",
          "type": "uint256"
        }
      ],
      "stateMutability": "view",
      "type": "function"
    },
    {
      "inputs": [
        {
          "internalType": "address",
          "name": "owner",
          "type": "address"
        },
        {
          "internalType": "uint256",
          "name": "index",
          "type": "uint256"
        }
      ],
      "name": "tokenOfOwnerByIndex",
      "outputs": [
        {
          "internalType": "uint256",
          "name": "",
          "type": "uint256"
        }
      ],
      "stateMutability": "view",
      "type": "function"
    },
    {
      "inputs": [
        {
          "internalType": "uint256",
          "name": "tokenId",
          "type": "uint256"
        }
      ],
      "name": "tokenURI",
      "outputs": [
        {
          "internalType": "string",
          "name": "",
          "type": "string"
        }
      ],
      "stateMutability": "view",
      "type": "function"
    },
    {
      "inputs": [],
      "name": "totalSupply",
      "outputs": [
        {
          "internalType": "uint256",
          "name": "",
          "type": "uint256"
        }
      ],
      "stateMutability": "view",
      "type": "function"
    },
    {
      "inputs": [
        {
          "internalType": "address",
          "name": "from",
          "type": "address"
        },
        {
          "internalType": "address",
          "name": "to",
          "type": "address"
        },
        {
          "internalType": "uint256",
          "name": "tokenId",
          "type": "uint256"
        }
      ],
      "name": "transferFrom",
      "outputs": [],
      "stateMutability": "nonpayable",
      "type": "function"
    },
    {
      "inputs": [
        {
          "internalType": "address",
          "name": "newOwner",
          "type": "address"
        }
      ],
      "name": "transferOwnership",
      "outputs": [],
      "stateMutability": "nonpayable",
      "type": "function"
    },
    {
      "inputs": [
        {
          "internalType": "uint256",
          "name": "_count",
          "type": "uint256"
        }
      ],
      "name": "setMaximumAllowedTokens",
      "outputs": [],
      "stateMutability": "nonpayable",
      "type": "function"
    },
    {
      "inputs": [
        {
          "internalType": "uint256",
          "name": "_count",
          "type": "uint256"
        }
      ],
      "name": "setMaximumAllowedTokensPerWallet",
      "outputs": [],
      "stateMutability": "nonpayable",
      "type": "function"
    },
    {
      "inputs": [
        {
          "internalType": "bool",
          "name": "val",
          "type": "bool"
        }
      ],
      "name": "setMintActive",
      "outputs": [],
      "stateMutability": "nonpayable",
      "type": "function"
    },
    {
      "inputs": [
        {
          "internalType": "uint256",
          "name": "maxMintSupply",
          "type": "uint256"
        }
      ],
      "name": "setMaxMintSupply",
      "outputs": [],
      "stateMutability": "nonpayable",
      "type": "function"
    },
    {
      "inputs": [
        {
          "internalType": "bool",
          "name": "_isPreSaleMintActive",
          "type": "bool"
        }
      ],
      "name": "setIsPreSaleMintActive",
      "outputs": [],
      "stateMutability": "nonpayable",
      "type": "function"
    },
    {
      "inputs": [
        {
          "internalType": "uint256",
          "name": "maxMint",
          "type": "uint256"
        }
      ],
      "name": "setAllowListMaxMint",
      "outputs": [],
      "stateMutability": "nonpayable",
      "type": "function"
    },
    {
      "inputs": [
        {
          "internalType": "address[]",
          "name": "addresses",
          "type": "address[]"
        }
      ],
      "name": "addToAllowList",
      "outputs": [],
      "stateMutability": "nonpayable",
      "type": "function"
    },
    {
      "inputs": [
        {
          "internalType": "address",
          "name": "addr",
          "type": "address"
        }
      ],
      "name": "checkIfOnAllowList",
      "outputs": [
        {
          "internalType": "bool",
          "name": "",
          "type": "bool"
        }
      ],
      "stateMutability": "view",
      "type": "function"
    },
    {
      "inputs": [
        {
          "internalType": "address[]",
          "name": "addresses",
          "type": "address[]"
        }
      ],
      "name": "removeFromAllowList",
      "outputs": [],
      "stateMutability": "nonpayable",
      "type": "function"
    },
    {
      "inputs": [
        {
          "internalType": "address",
          "name": "owner",
          "type": "address"
        }
      ],
      "name": "allowListClaimedBy",
      "outputs": [
        {
          "internalType": "uint256",
          "name": "",
          "type": "uint256"
        }
      ],
      "stateMutability": "view",
      "type": "function"
    },
    {
      "inputs": [
        {
          "internalType": "uint256",
          "name": "val",
          "type": "uint256"
        }
      ],
      "name": "setReserveAtATime",
      "outputs": [],
      "stateMutability": "nonpayable",
      "type": "function"
    },
    {
      "inputs": [
        {
          "internalType": "uint256",
          "name": "val",
          "type": "uint256"
        }
      ],
      "name": "setMaxReserve",
      "outputs": [],
      "stateMutability": "nonpayable",
      "type": "function"
    },
    {
      "inputs": [
        {
          "internalType": "uint256",
          "name": "_price",
          "type": "uint256"
        }
      ],
      "name": "setMintPrice",
      "outputs": [],
      "stateMutability": "nonpayable",
      "type": "function"
    },
    {
      "inputs": [
        {
          "internalType": "uint256",
          "name": "_price",
          "type": "uint256"
        }
      ],
      "name": "setPreSaleMintPrice",
      "outputs": [],
      "stateMutability": "nonpayable",
      "type": "function"
    },
    {
      "inputs": [
        {
          "internalType": "string",
          "name": "baseURI",
          "type": "string"
        }
      ],
      "name": "setBaseURI",
      "outputs": [],
      "stateMutability": "nonpayable",
      "type": "function"
    },
    {
      "inputs": [],
      "name": "getMaximumAllowedTokens",
      "outputs": [
        {
          "internalType": "uint256",
          "name": "",
          "type": "uint256"
        }
      ],
      "stateMutability": "view",
      "type": "function"
    },
    {
      "inputs": [],
      "name": "getMintPrice",
      "outputs": [
        {
          "internalType": "uint256",
          "name": "",
          "type": "uint256"
        }
      ],
      "stateMutability": "view",
      "type": "function"
    },
    {
      "inputs": [],
      "name": "getPreSaleMintPrice",
      "outputs": [
        {
          "internalType": "uint256",
          "name": "",
          "type": "uint256"
        }
      ],
      "stateMutability": "view",
      "type": "function"
    },
    {
      "inputs": [],
      "name": "getIsClosedMintForever",
      "outputs": [
        {
          "internalType": "bool",
          "name": "",
          "type": "bool"
        }
      ],
      "stateMutability": "view",
      "type": "function"
    },
    {
      "inputs": [],
      "name": "setIsClosedMintForever",
      "outputs": [],
      "stateMutability": "nonpayable",
      "type": "function"
    },
    {
      "inputs": [],
      "name": "getReserveAtATime",
      "outputs": [
        {
          "internalType": "uint256",
          "name": "",
          "type": "uint256"
        }
      ],
      "stateMutability": "view",
      "type": "function"
    },
    {
      "inputs": [],
      "name": "getTotalSupply",
      "outputs": [
        {
          "internalType": "uint256",
          "name": "",
          "type": "uint256"
        }
      ],
      "stateMutability": "view",
      "type": "function"
    },
    {
      "inputs": [],
      "name": "getContractOwner",
      "outputs": [
        {
          "internalType": "address",
          "name": "",
          "type": "address"
        }
      ],
      "stateMutability": "view",
      "type": "function"
    },
    {
      "inputs": [],
      "name": "reserveNft",
      "outputs": [],
      "stateMutability": "nonpayable",
      "type": "function"
    },
    {
      "inputs": [
        {
          "internalType": "address",
          "name": "_walletAddress",
          "type": "address"
        },
        {
          "internalType": "uint256",
          "name": "_count",
          "type": "uint256"
        }
      ],
      "name": "reserveToCustomWallet",
      "outputs": [],
      "stateMutability": "nonpayable",
      "type": "function"
    },
    {
      "inputs": [
        {
          "internalType": "address",
          "name": "_to",
          "type": "address"
        },
        {
          "internalType": "uint256",
          "name": "_count",
          "type": "uint256"
        }
      ],
      "name": "mint",
      "outputs": [],
      "stateMutability": "payable",
      "type": "function"
    },
    {
      "inputs": [
        {
          "internalType": "uint256",
          "name": "_count",
          "type": "uint256"
        }
      ],
      "name": "preSaleMint",
      "outputs": [],
      "stateMutability": "payable",
      "type": "function"
    },
    {
      "inputs": [
        {
          "internalType": "address",
          "name": "_owner",
          "type": "address"
        }
      ],
      "name": "walletOfOwner",
      "outputs": [
        {
          "internalType": "uint256[]",
          "name": "",
          "type": "uint256[]"
        }
      ],
      "stateMutability": "view",
      "type": "function"
    },
    {
      "inputs": [],
      "name": "withdraw",
      "outputs": [],
      "stateMutability": "nonpayable",
      "type": "function"
    }
  ],
  "bytecode": "0x608060405266038d7ea4c68000600b819055600c556032600d556000600e5560c8600f556011805462ffffff19169055612710601255600a60138190556014819055601555601680546001600160a01b031916739dbf14c79847d1566419dcddd5ad35daf0382e051790553480156200007757600080fd5b506040516200375a3803806200375a8339810160408190526200009a9162000285565b604080518082018252601781527f4e4654537461636b20536d61727420436f6e74726163740000000000000000006020808301918252835180850190945260068452654e465453534360d01b908401528151919291620000fd91600091620001df565b50805162000113906001906020840190620001df565b505050620001306200012a6200014260201b60201c565b62000146565b6200013b8162000198565b50620003ae565b3390565b600a80546001600160a01b038381166001600160a01b0319831681179093556040519116919082907f8be0079c531659141344cd1fd0a4f28419497f9722a3daafe3b4186f6b6457e090600090a35050565b33620001a3620001d0565b6001600160a01b031614620001b757600080fd5b8051620001cc906010906020840190620001df565b5050565b600a546001600160a01b031690565b828054620001ed906200035b565b90600052602060002090601f0160209004810192826200021157600085556200025c565b82601f106200022c57805160ff19168380011785556200025c565b828001600101855582156200025c579182015b828111156200025c5782518255916020019190600101906200023f565b506200026a9291506200026e565b5090565b5b808211156200026a57600081556001016200026f565b6000602080838503121562000298578182fd5b82516001600160401b0380821115620002af578384fd5b818501915085601f830112620002c3578384fd5b815181811115620002d857620002d862000398565b604051601f8201601f19908116603f0116810190838211818310171562000303576200030362000398565b8160405282815288868487010111156200031b578687fd5b8693505b828410156200033e57848401860151818501870152928501926200031f565b828411156200034f57868684830101525b98975050505050505050565b6002810460018216806200037057607f821691505b602082108114156200039257634e487b7160e01b600052602260045260246000fd5b50919050565b634e487b7160e01b600052604160045260246000fd5b61339c80620003be6000396000f3fe6080604052600436106103755760003560e01c80637263cfe2116101d1578063a7f93ebd11610102578063e985e9c5116100a0578063f132dc291161006f578063f132dc291461094f578063f2fde38b14610964578063f4a0a52814610984578063f6c9d9e3146109a457610375565b8063e985e9c5146108da578063ea6eb836146108fa578063ec7d09911461091a578063ee1cc9441461092f57610375565b8063c4e41b22116100dc578063c4e41b221461087b578063c87b56dd14610890578063cadf8818146108b0578063e7b62d96146108c557610375565b8063a7f93ebd14610831578063ad06d75814610846578063b88d4fde1461085b57610375565b80638da5cb5b1161016f5780639a3bf728116101495780639a3bf728146107c75780639ccb0fea146107dc578063a22cb465146107f1578063a51312c81461081157610375565b80638da5cb5b14610788578063932ecebc1461079d57806395d89b41146107b257610375565b80637835c635116101ab5780637835c6351461072b5780637a6685f11461073e5780637d26f4701461075e5780637f44ab2f1461077357610375565b80637263cfe2146106cb5780637389fbb7146106eb57806377b501b91461070b57610375565b806342842e0e116102ab57806356a87caa116102495780636817c76c116102235780636817c76c1461066c57806370a0823114610681578063715018a6146106a157806371e3500c146106b657610375565b806356a87caa146106175780635b92ac0d146106375780636352211e1461064c57610375565b80634d0550de116102855780634d0550de146105a25780634dfea627146105b75780634f6ccce7146105d757806355f804b3146105f757610375565b806342842e0e14610540578063438b630014610560578063442890d51461058d57610375565b806323b872dd116103185780633b9ee7e4116102f25780633b9ee7e4146104d85780633ccfd60b146104f85780633cfac5701461050d57806340c10f191461052d57610375565b806323b872dd146104785780632c1205f4146104985780632f745c59146104b857610375565b8063081812fc11610354578063081812fc146103ff578063095ea7b31461042c57806318160ddd1461044e57806321a911f81461046357610375565b806208ffdd1461037a57806301ffc9a7146103b057806306fdde03146103dd575b600080fd5b34801561038657600080fd5b5061039a610395366004612615565b6109c4565b6040516103a791906131d6565b60405180910390f35b3480156103bc57600080fd5b506103d06103cb3660046127f0565b610a15565b6040516103a79190612976565b3480156103e957600080fd5b506103f2610a40565b6040516103a79190612981565b34801561040b57600080fd5b5061041f61041a36600461286e565b610ad2565b6040516103a791906128e1565b34801561043857600080fd5b5061044c61044736600461273e565b610b15565b005b34801561045a57600080fd5b5061039a610bad565b34801561046f57600080fd5b5061039a610bb3565b34801561048457600080fd5b5061044c610493366004612661565b610bb9565b3480156104a457600080fd5b506103d06104b3366004612615565b610bf1565b3480156104c457600080fd5b5061039a6104d336600461273e565b610c0f565b3480156104e457600080fd5b5061044c6104f336600461286e565b610c61565b34801561050457600080fd5b5061044c610c82565b34801561051957600080fd5b5061044c6105283660046127d6565b610d47565b61044c61053b36600461273e565b610d7d565b34801561054c57600080fd5b5061044c61055b366004612661565b610f6e565b34801561056c57600080fd5b5061058061057b366004612615565b610f89565b6040516103a79190612932565b34801561059957600080fd5b5061041f611047565b3480156105ae57600080fd5b5061039a611056565b3480156105c357600080fd5b5061044c6105d236600461286e565b61105c565b3480156105e357600080fd5b5061039a6105f236600461286e565b61107d565b34801561060357600080fd5b5061044c610612366004612828565b6110d8565b34801561062357600080fd5b5061044c61063236600461286e565b611107565b34801561064357600080fd5b506103d0611128565b34801561065857600080fd5b5061041f61066736600461286e565b611131565b34801561067857600080fd5b5061039a611166565b34801561068d57600080fd5b5061039a61069c366004612615565b61116c565b3480156106ad57600080fd5b5061044c6111b0565b3480156106c257600080fd5b5061044c6111fb565b3480156106d757600080fd5b5061044c6106e6366004612767565b6112ba565b3480156106f757600080fd5b5061044c61070636600461286e565b611478565b34801561071757600080fd5b5061044c61072636600461273e565b611499565b61044c61073936600461286e565b61150c565b34801561074a57600080fd5b5061044c61075936600461286e565b6116e4565b34801561076a57600080fd5b506103d0611705565b34801561077f57600080fd5b5061039a611714565b34801561079457600080fd5b5061041f61171a565b3480156107a957600080fd5b5061044c611729565b3480156107be57600080fd5b506103f2611758565b3480156107d357600080fd5b5061039a611767565b3480156107e857600080fd5b506103d061176d565b3480156107fd57600080fd5b5061044c61080c366004612715565b61177b565b34801561081d57600080fd5b5061044c61082c366004612767565b611849565b34801561083d57600080fd5b5061039a611943565b34801561085257600080fd5b5061039a611949565b34801561086757600080fd5b5061044c61087636600461269c565b61196e565b34801561088757600080fd5b5061039a6119ad565b34801561089c57600080fd5b506103f26108ab36600461286e565b6119b7565b3480156108bc57600080fd5b5061039a611a3a565b3480156108d157600080fd5b5061039a611a40565b3480156108e657600080fd5b506103d06108f536600461262f565b611a46565b34801561090657600080fd5b5061044c61091536600461286e565b611a74565b34801561092657600080fd5b5061039a611a95565b34801561093b57600080fd5b5061044c61094a3660046127d6565b611a9b565b34801561095b57600080fd5b506103d0611b00565b34801561097057600080fd5b5061044c61097f366004612615565b611b0f565b34801561099057600080fd5b5061044c61099f36600461286e565b611b80565b3480156109b057600080fd5b5061044c6109bf36600461286e565b611ba1565b60006001600160a01b0382166109f55760405162461bcd60e51b81526004016109ec90612e84565b60405180910390fd5b506001600160a01b0381166000908152601860205260409020545b919050565b60006001600160e01b0319821663780e9d6360e01b1480610a3a5750610a3a82611bc2565b92915050565b606060008054610a4f90613284565b80601f0160208091040260200160405190810160405280929190818152602001828054610a7b90613284565b8015610ac85780601f10610a9d57610100808354040283529160200191610ac8565b820191906000526020600020905b815481529060010190602001808311610aab57829003601f168201915b5050505050905090565b6000610add82611c02565b610af95760405162461bcd60e51b81526004016109ec90612dcc565b506000908152600460205260409020546001600160a01b031690565b6000610b2082611131565b9050806001600160a01b0316836001600160a01b03161415610b545760405162461bcd60e51b81526004016109ec90612f8a565b806001600160a01b0316610b66611c1f565b6001600160a01b03161480610b825750610b82816108f5611c1f565b610b9e5760405162461bcd60e51b81526004016109ec90612ca7565b610ba88383611c23565b505050565b60085490565b600c5490565b610bca610bc4611c1f565b82611c91565b610be65760405162461bcd60e51b81526004016109ec90612ffb565b610ba8838383611d16565b6001600160a01b031660009081526017602052604090205460ff1690565b6000610c1a8361116c565b8210610c385760405162461bcd60e51b81526004016109ec90612a39565b506001600160a01b03919091166000908152600660209081526040808320938352929052205490565b33610c6a61171a565b6001600160a01b031614610c7d57600080fd5b600c55565b33610c8b61171a565b6001600160a01b031614610c9e57600080fd5b60165447906001600160a01b03166108fc612710610cbc8482613222565b610cc6919061320e565b6040518115909202916000818181858888f19350505050158015610cee573d6000803e3d6000fd5b50610cf761171a565b6001600160a01b03166108fc612710610d11846000613222565b610d1b919061320e565b6040518115909202916000818181858888f19350505050158015610d43573d6000803e3d6000fd5b5050565b33610d5061171a565b6001600160a01b031614610d6357600080fd5b601180549115156101000261ff0019909216919091179055565b601254610d88610bad565b1115610da65760405162461bcd60e51b81526004016109ec90612bb7565b610dae61171a565b6001600160a01b0316336001600160a01b031614610de85760115460ff16610de85760405162461bcd60e51b81526004016109ec90612a02565b610df061171a565b6001600160a01b0316826001600160a01b031614610e3d5760145481610e158461116c565b610e1f91906131f6565b1115610e3d5760405162461bcd60e51b81526004016109ec90612b80565b60125481610e49610bad565b610e5391906131f6565b1115610e715760405162461bcd60e51b81526004016109ec90612fcb565b601254610e7c610bad565b1115610e9a5760405162461bcd60e51b81526004016109ec906130cf565b601354811115610ebc5760405162461bcd60e51b81526004016109ec90612f53565b60115462010000900460ff1615610ee55760405162461bcd60e51b81526004016109ec90612b53565b80600b54610ef39190613222565b341015610f125760405162461bcd60e51b81526004016109ec906130fc565b60005b81811015610ba857600080516020613347833981519152610f34610bad565b84604051610f439291906131df565b60405180910390a1610f5c83610f57610bad565b611e43565b80610f66816132bf565b915050610f15565b610ba88383836040518060200160405280600081525061196e565b60606000610f968361116c565b905060008167ffffffffffffffff811115610fc157634e487b7160e01b600052604160045260246000fd5b604051908082528060200260200182016040528015610fea578160200160208202803683370190505b50905060005b8281101561103f576110028582610c0f565b82828151811061102257634e487b7160e01b600052603260045260246000fd5b602090810291909101015280611037816132bf565b915050610ff0565b509392505050565b600061105161171a565b905090565b60125481565b3361106561171a565b6001600160a01b03161461107857600080fd5b601355565b6000611087610bad565b82106110a55760405162461bcd60e51b81526004016109ec9061304c565b600882815481106110c657634e487b7160e01b600052603260045260246000fd5b90600052602060002001549050919050565b336110e161171a565b6001600160a01b0316146110f457600080fd5b8051610d439060109060208401906124df565b3361111061171a565b6001600160a01b03161461112357600080fd5b600f55565b60115460ff1681565b6000818152600260205260408120546001600160a01b031680610a3a5760405162461bcd60e51b81526004016109ec90612d4e565b600b5481565b60006001600160a01b0382166111945760405162461bcd60e51b81526004016109ec90612d04565b506001600160a01b031660009081526003602052604090205490565b6111b8611c1f565b6001600160a01b03166111c961171a565b6001600160a01b0316146111ef5760405162461bcd60e51b81526004016109ec90612e4f565b6111f96000611e5d565b565b3361120461171a565b6001600160a01b03161461121757600080fd5b600f54600e54111561123b5760405162461bcd60e51b81526004016109ec90612994565b6000611245610bad565b905060005b600d54811015610d435760008051602061334783398151915261126d82846131f6565b3360405161127c9291906131df565b60405180910390a161129233610f5783856131f6565b600e80549060006112a2836132bf565b919050555080806112b2906132bf565b91505061124a565b336112c361171a565b6001600160a01b0316146112d657600080fd5b60005b81811015610ba857600083838381811061130357634e487b7160e01b600052603260045260246000fd5b90506020020160208101906113189190612615565b6001600160a01b0316141561133f5760405162461bcd60e51b81526004016109ec90612e18565b60016017600085858581811061136557634e487b7160e01b600052603260045260246000fd5b905060200201602081019061137a9190612615565b6001600160a01b0316815260208101919091526040016000908120805460ff1916921515929092179091556018818585858181106113c857634e487b7160e01b600052603260045260246000fd5b90506020020160208101906113dd9190612615565b6001600160a01b03166001600160a01b03168152602001908152602001600020541161140a576000611465565b6018600084848481811061142e57634e487b7160e01b600052603260045260246000fd5b90506020020160208101906114439190612615565b6001600160a01b03166001600160a01b03168152602001908152602001600020545b5080611470816132bf565b9150506112d9565b3361148161171a565b6001600160a01b03161461149457600080fd5b601255565b336114a261171a565b6001600160a01b0316146114b557600080fd5b60005b81811015610ba8576000805160206133478339815191526114d7610bad565b846040516114e69291906131df565b60405180910390a16114fa83610f57610bad565b80611504816132bf565b9150506114b8565b601254611517610bad565b11156115355760405162461bcd60e51b81526004016109ec90612bb7565b601154610100900460ff1661155c5760405162461bcd60e51b81526004016109ec90613098565b3360009081526017602052604090205460ff1661158b5760405162461bcd60e51b81526004016109ec906129cb565b601254611596610bad565b106115b35760405162461bcd60e51b81526004016109ec9061316a565b6015548111156115d55760405162461bcd60e51b81526004016109ec906131a1565b601554336000908152601860205260409020546115f39083906131f6565b11156116115760405162461bcd60e51b81526004016109ec90613133565b80600c5461161f9190613222565b34101561163e5760405162461bcd60e51b81526004016109ec906130fc565b60115462010000900460ff16156116675760405162461bcd60e51b81526004016109ec90612b53565b60005b81811015610d43573360009081526018602052604081208054600192906116929084906131f6565b9091555060008051602061334783398151915290506116af610bad565b336040516116be9291906131df565b60405180910390a16116d233610f57610bad565b806116dc816132bf565b91505061166a565b336116ed61171a565b6001600160a01b03161461170057600080fd5b601555565b60115462010000900460ff1681565b60155481565b600a546001600160a01b031690565b3361173261171a565b6001600160a01b03161461174557600080fd5b6011805462ff0000191662010000179055565b606060018054610a4f90613284565b60135481565b601154610100900460ff1681565b611783611c1f565b6001600160a01b0316826001600160a01b031614156117b45760405162461bcd60e51b81526004016109ec90612c24565b80600560006117c1611c1f565b6001600160a01b03908116825260208083019390935260409182016000908120918716808252919093529120805460ff191692151592909217909155611805611c1f565b6001600160a01b03167f17307eab39ab6107e8899845ad3d59bd9653f200f220920489ca2b5937696c318360405161183d9190612976565b60405180910390a35050565b3361185261171a565b6001600160a01b03161461186557600080fd5b60005b81811015610ba857600083838381811061189257634e487b7160e01b600052603260045260246000fd5b90506020020160208101906118a79190612615565b6001600160a01b031614156118ce5760405162461bcd60e51b81526004016109ec90612e18565b6000601760008585858181106118f457634e487b7160e01b600052603260045260246000fd5b90506020020160208101906119099190612615565b6001600160a01b031681526020810191909152604001600020805460ff19169115159190911790558061193b816132bf565b915050611868565b600b5490565b60003361195461171a565b6001600160a01b03161461196757600080fd5b5060135490565b61197f611979611c1f565b83611c91565b61199b5760405162461bcd60e51b81526004016109ec90612ffb565b6119a784848484611eaf565b50505050565b6000611051610bad565b60606119c282611c02565b6119de5760405162461bcd60e51b81526004016109ec90612f04565b60006119e8611ee2565b90506000815111611a085760405180602001604052806000815250611a33565b80611a1284611ef1565b604051602001611a239291906128b2565b6040516020818303038152906040525b9392505050565b60145481565b600d5490565b6001600160a01b03918216600090815260056020908152604080832093909416825291909152205460ff1690565b33611a7d61171a565b6001600160a01b031614611a9057600080fd5b601455565b600c5481565b33611aa461171a565b6001600160a01b031614611ab757600080fd5b6011805460ff19168215151790556040517f58655b75d3df612fe99ead00dbf0812d415d35078fe06217a94c0818bb13967f90611af5908390612976565b60405180910390a150565b60115462010000900460ff1690565b611b17611c1f565b6001600160a01b0316611b2861171a565b6001600160a01b031614611b4e5760405162461bcd60e51b81526004016109ec90612e4f565b6001600160a01b038116611b745760405162461bcd60e51b81526004016109ec90612ad6565b611b7d81611e5d565b50565b33611b8961171a565b6001600160a01b031614611b9c57600080fd5b600b55565b33611baa61171a565b6001600160a01b031614611bbd57600080fd5b600d55565b60006001600160e01b031982166380ac58cd60e01b1480611bf357506001600160e01b03198216635b5e139f60e01b145b80610a3a5750610a3a8261200c565b6000908152600260205260409020546001600160a01b0316151590565b3390565b600081815260046020526040902080546001600160a01b0319166001600160a01b0384169081179091558190611c5882611131565b6001600160a01b03167f8c5be1e5ebec7d5bd14f71427d1e84f3dd0314c0f7b2291e5b200ac8c7c3b92560405160405180910390a45050565b6000611c9c82611c02565b611cb85760405162461bcd60e51b81526004016109ec90612c5b565b6000611cc383611131565b9050806001600160a01b0316846001600160a01b03161480611cfe5750836001600160a01b0316611cf384610ad2565b6001600160a01b0316145b80611d0e5750611d0e8185611a46565b949350505050565b826001600160a01b0316611d2982611131565b6001600160a01b031614611d4f5760405162461bcd60e51b81526004016109ec90612ebb565b6001600160a01b038216611d755760405162461bcd60e51b81526004016109ec90612be0565b611d80838383612025565b611d8b600082611c23565b6001600160a01b0383166000908152600360205260408120805460019290611db4908490613241565b90915550506001600160a01b0382166000908152600360205260408120805460019290611de29084906131f6565b909155505060008181526002602052604080822080546001600160a01b0319166001600160a01b0386811691821790925591518493918716917fddf252ad1be2c89b69c2b068fc378daa952ba7f163c4a11628f55a4df523b3ef91a4505050565b610d438282604051806020016040528060008152506120ae565b600a80546001600160a01b038381166001600160a01b0319831681179093556040519116919082907f8be0079c531659141344cd1fd0a4f28419497f9722a3daafe3b4186f6b6457e090600090a35050565b611eba848484611d16565b611ec6848484846120e1565b6119a75760405162461bcd60e51b81526004016109ec90612a84565b606060108054610a4f90613284565b606081611f1657506040805180820190915260018152600360fc1b6020820152610a10565b8160005b8115611f405780611f2a816132bf565b9150611f399050600a8361320e565b9150611f1a565b60008167ffffffffffffffff811115611f6957634e487b7160e01b600052604160045260246000fd5b6040519080825280601f01601f191660200182016040528015611f93576020820181803683370190505b5090505b8415611d0e57611fa8600183613241565b9150611fb5600a866132da565b611fc09060306131f6565b60f81b818381518110611fe357634e487b7160e01b600052603260045260246000fd5b60200101906001600160f81b031916908160001a905350612005600a8661320e565b9450611f97565b6001600160e01b031981166301ffc9a760e01b14919050565b612030838383610ba8565b6001600160a01b03831661204c57612047816121fc565b61206f565b816001600160a01b0316836001600160a01b03161461206f5761206f8382612240565b6001600160a01b03821661208b57612086816122dd565b610ba8565b826001600160a01b0316826001600160a01b031614610ba857610ba882826123b6565b6120b883836123fa565b6120c560008484846120e1565b610ba85760405162461bcd60e51b81526004016109ec90612a84565b60006120f5846001600160a01b03166124d9565b156121f157836001600160a01b031663150b7a02612111611c1f565b8786866040518563ffffffff1660e01b815260040161213394939291906128f5565b602060405180830381600087803b15801561214d57600080fd5b505af192505050801561217d575060408051601f3d908101601f1916820190925261217a9181019061280c565b60015b6121d7573d8080156121ab576040519150601f19603f3d011682016040523d82523d6000602084013e6121b0565b606091505b5080516121cf5760405162461bcd60e51b81526004016109ec90612a84565b805181602001fd5b6001600160e01b031916630a85bd0160e11b149050611d0e565b506001949350505050565b600880546000838152600960205260408120829055600182018355919091527ff3f7a9fe364faab93b216da50a3214154f22a0a2b415b23a84c8169e8b636ee30155565b6000600161224d8461116c565b6122579190613241565b6000838152600760205260409020549091508082146122aa576001600160a01b03841660009081526006602090815260408083208584528252808320548484528184208190558352600790915290208190555b5060009182526007602090815260408084208490556001600160a01b039094168352600681528383209183525290812055565b6008546000906122ef90600190613241565b6000838152600960205260408120546008805493945090928490811061232557634e487b7160e01b600052603260045260246000fd5b90600052602060002001549050806008838154811061235457634e487b7160e01b600052603260045260246000fd5b600091825260208083209091019290925582815260099091526040808220849055858252812055600880548061239a57634e487b7160e01b600052603160045260246000fd5b6001900381819060005260206000200160009055905550505050565b60006123c18361116c565b6001600160a01b039093166000908152600660209081526040808320868452825280832085905593825260079052919091209190915550565b6001600160a01b0382166124205760405162461bcd60e51b81526004016109ec90612d97565b61242981611c02565b156124465760405162461bcd60e51b81526004016109ec90612b1c565b61245260008383612025565b6001600160a01b038216600090815260036020526040812080546001929061247b9084906131f6565b909155505060008181526002602052604080822080546001600160a01b0319166001600160a01b03861690811790915590518392907fddf252ad1be2c89b69c2b068fc378daa952ba7f163c4a11628f55a4df523b3ef908290a45050565b3b151590565b8280546124eb90613284565b90600052602060002090601f01602090048101928261250d5760008555612553565b82601f1061252657805160ff1916838001178555612553565b82800160010185558215612553579182015b82811115612553578251825591602001919060010190612538565b5061255f929150612563565b5090565b5b8082111561255f5760008155600101612564565b600067ffffffffffffffff808411156125935761259361331a565b604051601f8501601f19908116603f011681019082821181831017156125bb576125bb61331a565b816040528093508581528686860111156125d457600080fd5b858560208301376000602087830101525050509392505050565b80356001600160a01b0381168114610a1057600080fd5b80358015158114610a1057600080fd5b600060208284031215612626578081fd5b611a33826125ee565b60008060408385031215612641578081fd5b61264a836125ee565b9150612658602084016125ee565b90509250929050565b600080600060608486031215612675578081fd5b61267e846125ee565b925061268c602085016125ee565b9150604084013590509250925092565b600080600080608085870312156126b1578081fd5b6126ba856125ee565b93506126c8602086016125ee565b925060408501359150606085013567ffffffffffffffff8111156126ea578182fd5b8501601f810187136126fa578182fd5b61270987823560208401612578565b91505092959194509250565b60008060408385031215612727578182fd5b612730836125ee565b915061265860208401612605565b60008060408385031215612750578182fd5b612759836125ee565b946020939093013593505050565b60008060208385031215612779578182fd5b823567ffffffffffffffff80821115612790578384fd5b818501915085601f8301126127a3578384fd5b8135818111156127b1578485fd5b86602080830285010111156127c4578485fd5b60209290920196919550909350505050565b6000602082840312156127e7578081fd5b611a3382612605565b600060208284031215612801578081fd5b8135611a3381613330565b60006020828403121561281d578081fd5b8151611a3381613330565b600060208284031215612839578081fd5b813567ffffffffffffffff81111561284f578182fd5b8201601f8101841361285f578182fd5b611d0e84823560208401612578565b60006020828403121561287f578081fd5b5035919050565b6000815180845261289e816020860160208601613258565b601f01601f19169290920160200192915050565b600083516128c4818460208801613258565b8351908301906128d8818360208801613258565b01949350505050565b6001600160a01b0391909116815260200190565b6001600160a01b038581168252841660208201526040810183905260806060820181905260009061292890830184612886565b9695505050505050565b6020808252825182820181905260009190848201906040850190845b8181101561296a5783518352928401929184019160010161294e565b50909695505050505050565b901515815260200190565b600060208252611a336020830184612886565b6020808252601b908201527f4d61782052657365727665732074616b656e20616c7265616479210000000000604082015260600190565b6020808252601d908201527f596f7520617265206e6f74206f6e2074686520416c6c6f77204c697374000000604082015260600190565b6020808252601d908201527f53616c65206973206e6f74206163746976652063757272656e746c792e000000604082015260600190565b6020808252602b908201527f455243373231456e756d657261626c653a206f776e657220696e646578206f7560408201526a74206f6620626f756e647360a81b606082015260800190565b60208082526032908201527f4552433732313a207472616e7366657220746f206e6f6e20455243373231526560408201527131b2b4bb32b91034b6b83632b6b2b73a32b960711b606082015260800190565b60208082526026908201527f4f776e61626c653a206e6577206f776e657220697320746865207a65726f206160408201526564647265737360d01b606082015260800190565b6020808252601c908201527f4552433732313a20746f6b656e20616c7265616479206d696e74656400000000604082015260600190565b60208082526013908201527226b4b73a1021b637b9b2b2102337b932bb32b960691b604082015260600190565b60208082526018908201527f4d617820686f6c64696e672063617020726561636865642e0000000000000000604082015260600190565b6020808252600f908201526e29b0b632903430b99032b73232b21760891b604082015260600190565b60208082526024908201527f4552433732313a207472616e7366657220746f20746865207a65726f206164646040820152637265737360e01b606082015260800190565b60208082526019908201527f4552433732313a20617070726f766520746f2063616c6c657200000000000000604082015260600190565b6020808252602c908201527f4552433732313a206f70657261746f7220717565727920666f72206e6f6e657860408201526b34b9ba32b73a103a37b5b2b760a11b606082015260800190565b60208082526038908201527f4552433732313a20617070726f76652063616c6c6572206973206e6f74206f7760408201527f6e6572206e6f7220617070726f76656420666f7220616c6c0000000000000000606082015260800190565b6020808252602a908201527f4552433732313a2062616c616e636520717565727920666f7220746865207a65604082015269726f206164647265737360b01b606082015260800190565b60208082526029908201527f4552433732313a206f776e657220717565727920666f72206e6f6e657869737460408201526832b73a103a37b5b2b760b91b606082015260800190565b6020808252818101527f4552433732313a206d696e7420746f20746865207a65726f2061646472657373604082015260600190565b6020808252602c908201527f4552433732313a20617070726f76656420717565727920666f72206e6f6e657860408201526b34b9ba32b73a103a37b5b2b760a11b606082015260800190565b60208082526018908201527f43616e2774206164642061206e756c6c20616464726573730000000000000000604082015260600190565b6020808252818101527f4f776e61626c653a2063616c6c6572206973206e6f7420746865206f776e6572604082015260600190565b6020808252601e908201527f5a65726f2061646472657373206e6f74206f6e20416c6c6f77204c6973740000604082015260600190565b60208082526029908201527f4552433732313a207472616e73666572206f6620746f6b656e2074686174206960408201526839903737ba1037bbb760b91b606082015260800190565b6020808252602f908201527f4552433732314d657461646174613a2055524920717565727920666f72206e6f60408201526e3732bc34b9ba32b73a103a37b5b2b760891b606082015260800190565b6020808252601e908201527f45786365656473206d6178696d756d20616c6c6f77656420746f6b656e730000604082015260600190565b60208082526021908201527f4552433732313a20617070726f76616c20746f2063757272656e74206f776e656040820152603960f91b606082015260800190565b6020808252601690820152752a37ba30b61039bab838363c9032bc31b2b2b232b21760511b604082015260600190565b60208082526031908201527f4552433732313a207472616e736665722063616c6c6572206973206e6f74206f6040820152701ddb995c881b9bdc88185c1c1c9bdd9959607a1b606082015260800190565b6020808252602c908201527f455243373231456e756d657261626c653a20676c6f62616c20696e646578206f60408201526b7574206f6620626f756e647360a01b606082015260800190565b6020808252601b908201527f5072652053616c65204d696e74206973206e6f74206163746976650000000000604082015260600190565b6020808252601390820152722a37ba30b61039bab838363c9039b832b73a1760691b604082015260600190565b6020808252601b908201527f496e7375666669656e742045544820616d6f756e742073656e742e0000000000604082015260600190565b6020808252601c908201527f50757263686173652065786365656473206d617820616c6c6f77656400000000604082015260600190565b6020808252601b908201527f416c6c20746f6b656e732068617665206265656e206d696e7465640000000000604082015260600190565b6020808252818101527f43616e6e6f742070757263686173652074686973206d616e7920746f6b656e73604082015260600190565b90815260200190565b9182526001600160a01b0316602082015260400190565b60008219821115613209576132096132ee565b500190565b60008261321d5761321d613304565b500490565b600081600019048311821515161561323c5761323c6132ee565b500290565b600082821015613253576132536132ee565b500390565b60005b8381101561327357818101518382015260200161325b565b838111156119a75750506000910152565b60028104600182168061329857607f821691505b602082108114156132b957634e487b7160e01b600052602260045260246000fd5b50919050565b60006000198214156132d3576132d36132ee565b5060010190565b6000826132e9576132e9613304565b500690565b634e487b7160e01b600052601160045260246000fd5b634e487b7160e01b600052601260045260246000fd5b634e487b7160e01b600052604160045260246000fd5b6001600160e01b031981168114611b7d57600080fdfe55f284809f4c5b7377fbe62f2feeb9686e3834dcae5f3ca955140fe6547cd355a26469706673582212205eeb97ba035c2045efc17c65a8b957f289c8d867d6e02443922bedb98942cf2464736f6c63430008010033",
  "immutableReferences": {},
  "source": "//\n// Made by: NFT Stack\n//          https://nftstack.info\n//\n\npragma solidity ^0.8.1;\n\nimport \"@openzeppelin/contracts/token/ERC721/extensions/ERC721Enumerable.sol\";\nimport \"@openzeppelin/contracts/access/Ownable.sol\";\n\ncontract NFTStackSmartContract is ERC721Enumerable, Ownable {\n  uint256 public mintPrice = 0.001 ether;\n  uint256 public preSaleMintPrice = 0.001 ether;\n\n  uint256 private reserveAtATime = 50;\n  uint256 private reservedCount = 0;\n  uint256 private maxReserveCount = 200;\n\n  string _baseTokenURI;\n\n  bool public isMintActive = false;\n  bool public isPreSaleMintActive = false;\n  bool public isClosedMintForever = false;\n\n  uint256 public maximumMintSupply = 10000;\n  uint256 public maximumAllowedTokensPerPurchase = 10;\n  uint256 public maximumAllowedTokensPerWallet = 10;\n  uint256 public allowListMaxMint = 10;\n\n  address private OtherAddress = 0x9DbF14C79847D1566419dCddd5ad35DAf0382E05;\n\n  mapping(address => bool) private _allowList;\n  mapping(address => uint256) private _allowListClaimed;\n\n  event AssetMinted(uint256 tokenId, address sender);\n  event SaleActivation(bool isMintActive);\n\n  constructor(string memory baseURI) ERC721(\"NFTStack Smart Contract\", \"NFTSSC\") {\n    setBaseURI(baseURI);\n  }\n\n  modifier saleIsOpen {\n    require(totalSupply() <= maximumMintSupply, \"Sale has ended.\");\n    _;\n  }\n\n  modifier onlyAuthorized() {\n    require(owner() == msg.sender);\n    _;\n  }\n\n  function setMaximumAllowedTokens(uint256 _count) public onlyAuthorized {\n    maximumAllowedTokensPerPurchase = _count;\n  }\n\n  function setMaximumAllowedTokensPerWallet(uint256 _count) public onlyAuthorized {\n    maximumAllowedTokensPerWallet = _count;\n  }\n\n  function setMintActive(bool val) public onlyAuthorized {\n    isMintActive = val;\n    emit SaleActivation(val);\n  }\n\n  function setMaxMintSupply(uint256 maxMintSupply) external  onlyAuthorized {\n    maximumMintSupply = maxMintSupply;\n  }\n\n  function setIsPreSaleMintActive(bool _isPreSaleMintActive) external onlyAuthorized {\n    isPreSaleMintActive = _isPreSaleMintActive;\n  }\n\n  function setAllowListMaxMint(uint256 maxMint) external  onlyAuthorized {\n    allowListMaxMint = maxMint;\n  }\n\n  function addToAllowList(address[] calldata addresses) external onlyAuthorized {\n    for (uint256 i = 0; i < addresses.length; i++) {\n      require(addresses[i] != address(0), \"Can't add a null address\");\n      _allowList[addresses[i]] = true;\n      _allowListClaimed[addresses[i]] > 0 ? _allowListClaimed[addresses[i]] : 0;\n    }\n  }\n\n  function checkIfOnAllowList(address addr) external view returns (bool) {\n    return _allowList[addr];\n  }\n\n  function removeFromAllowList(address[] calldata addresses) external onlyAuthorized {\n    for (uint256 i = 0; i < addresses.length; i++) {\n      require(addresses[i] != address(0), \"Can't add a null address\");\n      _allowList[addresses[i]] = false;\n    }\n  }\n\n  function allowListClaimedBy(address owner) external view returns (uint256){\n    require(owner != address(0), 'Zero address not on Allow List');\n    return _allowListClaimed[owner];\n  }\n\n  function setReserveAtATime(uint256 val) public onlyAuthorized {\n    reserveAtATime = val;\n  }\n\n  function setMaxReserve(uint256 val) public onlyAuthorized {\n    maxReserveCount = val;\n  }\n\n  function setMintPrice(uint256 _price) public onlyAuthorized {\n    mintPrice = _price;\n  }\n\n  function setPreSaleMintPrice(uint256 _price) public onlyAuthorized {\n    preSaleMintPrice = _price;\n  }\n\n  function setBaseURI(string memory baseURI) public onlyAuthorized {\n    _baseTokenURI = baseURI;\n  }\n\n  function getMaximumAllowedTokens() public view onlyAuthorized returns (uint256) {\n    return maximumAllowedTokensPerPurchase;\n  }\n\n  function getMintPrice() external view returns (uint256) {\n    return mintPrice;\n  }\n\n  function getPreSaleMintPrice() external view returns (uint256) {\n    return preSaleMintPrice;\n  }\n\n  function getIsClosedMintForever() external view returns (bool) {\n    return isClosedMintForever;\n  }\n\n  function setIsClosedMintForever() external onlyAuthorized {\n    isClosedMintForever = true;\n  }\n\n  function getReserveAtATime() external view returns (uint256) {\n    return reserveAtATime;\n  }\n\n  function getTotalSupply() external view returns (uint256) {\n    return totalSupply();\n  }\n\n  function getContractOwner() public view returns (address) {\n    return owner();\n  }\n\n  function _baseURI() internal view virtual override returns (string memory) {\n    return _baseTokenURI;\n  }\n\n  function reserveNft() public onlyAuthorized {\n    require(reservedCount <= maxReserveCount, \"Max Reserves taken already!\");\n    uint256 supply = totalSupply();\n    uint256 i;\n\n    for (i = 0; i < reserveAtATime; i++) {\n      emit AssetMinted(supply + i, msg.sender);\n      _safeMint(msg.sender, supply + i);\n      reservedCount++;\n    }\n  }\n\n  function reserveToCustomWallet(address _walletAddress, uint256 _count) public onlyAuthorized {\n    for (uint256 i = 0; i < _count; i++) {\n      emit AssetMinted(totalSupply(), _walletAddress);\n      _safeMint(_walletAddress, totalSupply());\n    }\n  }\n\n  function mint(address _to, uint256 _count) public payable saleIsOpen {\n    if (msg.sender != owner()) {\n      require(isMintActive, \"Sale is not active currently.\");\n    }\n\n    if(_to != owner()) {\n      require(balanceOf(_to) + _count <= maximumAllowedTokensPerWallet, \"Max holding cap reached.\");\n    }\n\n    require(totalSupply() + _count <= maximumMintSupply, \"Total supply exceeded.\");\n    require(totalSupply() <= maximumMintSupply, \"Total supply spent.\");\n    require(\n      _count <= maximumAllowedTokensPerPurchase,\n      \"Exceeds maximum allowed tokens\"\n    );\n    require(!isClosedMintForever, \"Mint Closed Forever\");\n\n    require(msg.value >= mintPrice * _count, \"Insuffient ETH amount sent.\");\n\n    for (uint256 i = 0; i < _count; i++) {\n      emit AssetMinted(totalSupply(), _to);\n      _safeMint(_to, totalSupply());\n    }\n  }\n\n  function preSaleMint(uint256 _count) public payable saleIsOpen {\n    require(isPreSaleMintActive, 'Pre Sale Mint is not active');\n    require(_allowList[msg.sender], 'You are not on the Allow List');\n    require(totalSupply() < maximumMintSupply, 'All tokens have been minted');\n    require(_count <= allowListMaxMint, 'Cannot purchase this many tokens');\n    require(_allowListClaimed[msg.sender] + _count <= allowListMaxMint, 'Purchase exceeds max allowed');\n    require(msg.value >= preSaleMintPrice * _count, 'Insuffient ETH amount sent.');\n    require(!isClosedMintForever, 'Mint Closed Forever');\n\n    for (uint256 i = 0; i < _count; i++) {\n      _allowListClaimed[msg.sender] += 1;\n      emit AssetMinted(totalSupply(), msg.sender);\n      _safeMint(msg.sender, totalSupply());\n    }\n  }\n\n  function walletOfOwner(address _owner) external view returns(uint256[] memory) {\n    uint tokenCount = balanceOf(_owner);\n    uint256[] memory tokensId = new uint256[](tokenCount);\n\n    for(uint i = 0; i < tokenCount; i++){\n      tokensId[i] = tokenOfOwnerByIndex(_owner, i);\n    }\n    return tokensId;\n  }\n\n  function withdraw() external onlyAuthorized {\n    uint balance = address(this).balance;\n    payable(OtherAddress).transfer(balance * 10000 / 10000);\n    payable(owner()).transfer(balance * 0 / 10000);\n  }\n}",
  "sourcePath": "/Users/chuljyan/PhpstormProjects/web3/contracts/NFTStackSmartContract.sol",
  "compiler": {
    "name": "solc",
    "version": "0.8.1+commit.df193b15.Emscripten.clang"
  },
  "schemaVersion": "3.3.4",
  "updatedAt": "2022-03-09T11:14:41.071Z",
  "devdoc": {
    "kind": "dev",
    "methods": {
      "approve(address,uint256)": {
        "details": "See {IERC721-approve}."
      },
      "balanceOf(address)": {
        "details": "See {IERC721-balanceOf}."
      },
      "getApproved(uint256)": {
        "details": "See {IERC721-getApproved}."
      },
      "isApprovedForAll(address,address)": {
        "details": "See {IERC721-isApprovedForAll}."
      },
      "name()": {
        "details": "See {IERC721Metadata-name}."
      },
      "owner()": {
        "details": "Returns the address of the current owner."
      },
      "ownerOf(uint256)": {
        "details": "See {IERC721-ownerOf}."
      },
      "renounceOwnership()": {
        "details": "Leaves the contract without owner. It will not be possible to call `onlyOwner` functions anymore. Can only be called by the current owner. NOTE: Renouncing ownership will leave the contract without an owner, thereby removing any functionality that is only available to the owner."
      },
      "safeTransferFrom(address,address,uint256)": {
        "details": "See {IERC721-safeTransferFrom}."
      },
      "safeTransferFrom(address,address,uint256,bytes)": {
        "details": "See {IERC721-safeTransferFrom}."
      },
      "setApprovalForAll(address,bool)": {
        "details": "See {IERC721-setApprovalForAll}."
      },
      "supportsInterface(bytes4)": {
        "details": "See {IERC165-supportsInterface}."
      },
      "symbol()": {
        "details": "See {IERC721Metadata-symbol}."
      },
      "tokenByIndex(uint256)": {
        "details": "See {IERC721Enumerable-tokenByIndex}."
      },
      "tokenOfOwnerByIndex(address,uint256)": {
        "details": "See {IERC721Enumerable-tokenOfOwnerByIndex}."
      },
      "tokenURI(uint256)": {
        "details": "See {IERC721Metadata-tokenURI}."
      },
      "totalSupply()": {
        "details": "See {IERC721Enumerable-totalSupply}."
      },
      "transferFrom(address,address,uint256)": {
        "details": "See {IERC721-transferFrom}."
      },
      "transferOwnership(address)": {
        "details": "Transfers ownership of the contract to a new account (`newOwner`). Can only be called by the current owner."
      }
    },
    "version": 1
  },
  "userdoc": {
    "kind": "user",
    "methods": {},
    "version": 1
  }
}