{
  "contractName": "SkyPunkLegacy",
  "abi": [
    {
      "inputs": [
        {
          "internalType": "string",
          "name": "baseURI",
          "type": "string"
        }
      ],
      "stateMutability": "nonpayable",
      "type": "constructor"
    },
    {
      "anonymous": false,
      "inputs": [
        {
          "indexed": true,
          "internalType": "address",
          "name": "owner",
          "type": "address"
        },
        {
          "indexed": true,
          "internalType": "address",
          "name": "approved",
          "type": "address"
        },
        {
          "indexed": true,
          "internalType": "uint256",
          "name": "tokenId",
          "type": "uint256"
        }
      ],
      "name": "Approval",
      "type": "event"
    },
    {
      "anonymous": false,
      "inputs": [
        {
          "indexed": true,
          "internalType": "address",
          "name": "owner",
          "type": "address"
        },
        {
          "indexed": true,
          "internalType": "address",
          "name": "operator",
          "type": "address"
        },
        {
          "indexed": false,
          "internalType": "bool",
          "name": "approved",
          "type": "bool"
        }
      ],
      "name": "ApprovalForAll",
      "type": "event"
    },
    {
      "anonymous": false,
      "inputs": [
        {
          "indexed": false,
          "internalType": "uint256",
          "name": "tokenId",
          "type": "uint256"
        },
        {
          "indexed": false,
          "internalType": "address",
          "name": "sender",
          "type": "address"
        }
      ],
      "name": "AssetMinted",
      "type": "event"
    },
    {
      "anonymous": false,
      "inputs": [
        {
          "indexed": true,
          "internalType": "address",
          "name": "previousOwner",
          "type": "address"
        },
        {
          "indexed": true,
          "internalType": "address",
          "name": "newOwner",
          "type": "address"
        }
      ],
      "name": "OwnershipTransferred",
      "type": "event"
    },
    {
      "anonymous": false,
      "inputs": [
        {
          "indexed": false,
          "internalType": "bool",
          "name": "isMintActive",
          "type": "bool"
        }
      ],
      "name": "SaleActivation",
      "type": "event"
    },
    {
      "anonymous": false,
      "inputs": [
        {
          "indexed": true,
          "internalType": "address",
          "name": "from",
          "type": "address"
        },
        {
          "indexed": true,
          "internalType": "address",
          "name": "to",
          "type": "address"
        },
        {
          "indexed": true,
          "internalType": "uint256",
          "name": "tokenId",
          "type": "uint256"
        }
      ],
      "name": "Transfer",
      "type": "event"
    },
    {
      "inputs": [],
      "name": "allowListMaxMint",
      "outputs": [
        {
          "internalType": "uint256",
          "name": "",
          "type": "uint256"
        }
      ],
      "stateMutability": "view",
      "type": "function"
    },
    {
      "inputs": [
        {
          "internalType": "address",
          "name": "to",
          "type": "address"
        },
        {
          "internalType": "uint256",
          "name": "tokenId",
          "type": "uint256"
        }
      ],
      "name": "approve",
      "outputs": [],
      "stateMutability": "nonpayable",
      "type": "function"
    },
    {
      "inputs": [
        {
          "internalType": "address",
          "name": "owner",
          "type": "address"
        }
      ],
      "name": "balanceOf",
      "outputs": [
        {
          "internalType": "uint256",
          "name": "",
          "type": "uint256"
        }
      ],
      "stateMutability": "view",
      "type": "function"
    },
    {
      "inputs": [
        {
          "internalType": "uint256",
          "name": "tokenId",
          "type": "uint256"
        }
      ],
      "name": "getApproved",
      "outputs": [
        {
          "internalType": "address",
          "name": "",
          "type": "address"
        }
      ],
      "stateMutability": "view",
      "type": "function"
    },
    {
      "inputs": [
        {
          "internalType": "address",
          "name": "owner",
          "type": "address"
        },
        {
          "internalType": "address",
          "name": "operator",
          "type": "address"
        }
      ],
      "name": "isApprovedForAll",
      "outputs": [
        {
          "internalType": "bool",
          "name": "",
          "type": "bool"
        }
      ],
      "stateMutability": "view",
      "type": "function"
    },
    {
      "inputs": [],
      "name": "isClosedMintForever",
      "outputs": [
        {
          "internalType": "bool",
          "name": "",
          "type": "bool"
        }
      ],
      "stateMutability": "view",
      "type": "function"
    },
    {
      "inputs": [],
      "name": "isMintActive",
      "outputs": [
        {
          "internalType": "bool",
          "name": "",
          "type": "bool"
        }
      ],
      "stateMutability": "view",
      "type": "function"
    },
    {
      "inputs": [],
      "name": "isPreSaleMintActive",
      "outputs": [
        {
          "internalType": "bool",
          "name": "",
          "type": "bool"
        }
      ],
      "stateMutability": "view",
      "type": "function"
    },
    {
      "inputs": [],
      "name": "maximumAllowedTokensPerPurchase",
      "outputs": [
        {
          "internalType": "uint256",
          "name": "",
          "type": "uint256"
        }
      ],
      "stateMutability": "view",
      "type": "function"
    },
    {
      "inputs": [],
      "name": "maximumAllowedTokensPerWallet",
      "outputs": [
        {
          "internalType": "uint256",
          "name": "",
          "type": "uint256"
        }
      ],
      "stateMutability": "view",
      "type": "function"
    },
    {
      "inputs": [],
      "name": "maximumMintSupply",
      "outputs": [
        {
          "internalType": "uint256",
          "name": "",
          "type": "uint256"
        }
      ],
      "stateMutability": "view",
      "type": "function"
    },
    {
      "inputs": [],
      "name": "mintPrice",
      "outputs": [
        {
          "internalType": "uint256",
          "name": "",
          "type": "uint256"
        }
      ],
      "stateMutability": "view",
      "type": "function"
    },
    {
      "inputs": [],
      "name": "name",
      "outputs": [
        {
          "internalType": "string",
          "name": "",
          "type": "string"
        }
      ],
      "stateMutability": "view",
      "type": "function"
    },
    {
      "inputs": [],
      "name": "owner",
      "outputs": [
        {
          "internalType": "address",
          "name": "",
          "type": "address"
        }
      ],
      "stateMutability": "view",
      "type": "function"
    },
    {
      "inputs": [
        {
          "internalType": "uint256",
          "name": "tokenId",
          "type": "uint256"
        }
      ],
      "name": "ownerOf",
      "outputs": [
        {
          "internalType": "address",
          "name": "",
          "type": "address"
        }
      ],
      "stateMutability": "view",
      "type": "function"
    },
    {
      "inputs": [],
      "name": "preSaleMintPrice",
      "outputs": [
        {
          "internalType": "uint256",
          "name": "",
          "type": "uint256"
        }
      ],
      "stateMutability": "view",
      "type": "function"
    },
    {
      "inputs": [],
      "name": "renounceOwnership",
      "outputs": [],
      "stateMutability": "nonpayable",
      "type": "function"
    },
    {
      "inputs": [
        {
          "internalType": "address",
          "name": "from",
          "type": "address"
        },
        {
          "internalType": "address",
          "name": "to",
          "type": "address"
        },
        {
          "internalType": "uint256",
          "name": "tokenId",
          "type": "uint256"
        }
      ],
      "name": "safeTransferFrom",
      "outputs": [],
      "stateMutability": "nonpayable",
      "type": "function"
    },
    {
      "inputs": [
        {
          "internalType": "address",
          "name": "from",
          "type": "address"
        },
        {
          "internalType": "address",
          "name": "to",
          "type": "address"
        },
        {
          "internalType": "uint256",
          "name": "tokenId",
          "type": "uint256"
        },
        {
          "internalType": "bytes",
          "name": "_data",
          "type": "bytes"
        }
      ],
      "name": "safeTransferFrom",
      "outputs": [],
      "stateMutability": "nonpayable",
      "type": "function"
    },
    {
      "inputs": [
        {
          "internalType": "address",
          "name": "operator",
          "type": "address"
        },
        {
          "internalType": "bool",
          "name": "approved",
          "type": "bool"
        }
      ],
      "name": "setApprovalForAll",
      "outputs": [],
      "stateMutability": "nonpayable",
      "type": "function"
    },
    {
      "inputs": [
        {
          "internalType": "bytes4",
          "name": "interfaceId",
          "type": "bytes4"
        }
      ],
      "name": "supportsInterface",
      "outputs": [
        {
          "internalType": "bool",
          "name": "",
          "type": "bool"
        }
      ],
      "stateMutability": "view",
      "type": "function"
    },
    {
      "inputs": [],
      "name": "symbol",
      "outputs": [
        {
          "internalType": "string",
          "name": "",
          "type": "string"
        }
      ],
      "stateMutability": "view",
      "type": "function"
    },
    {
      "inputs": [
        {
          "internalType": "uint256",
          "name": "index",
          "type": "uint256"
        }
      ],
      "name": "tokenByIndex",
      "outputs": [
        {
          "internalType": "uint256",
          "name": "",
          "type": "uint256"
        }
      ],
      "stateMutability": "view",
      "type": "function"
    },
    {
      "inputs": [
        {
          "internalType": "address",
          "name": "owner",
          "type": "address"
        },
        {
          "internalType": "uint256",
          "name": "index",
          "type": "uint256"
        }
      ],
      "name": "tokenOfOwnerByIndex",
      "outputs": [
        {
          "internalType": "uint256",
          "name": "",
          "type": "uint256"
        }
      ],
      "stateMutability": "view",
      "type": "function"
    },
    {
      "inputs": [
        {
          "internalType": "uint256",
          "name": "tokenId",
          "type": "uint256"
        }
      ],
      "name": "tokenURI",
      "outputs": [
        {
          "internalType": "string",
          "name": "",
          "type": "string"
        }
      ],
      "stateMutability": "view",
      "type": "function"
    },
    {
      "inputs": [],
      "name": "totalSupply",
      "outputs": [
        {
          "internalType": "uint256",
          "name": "",
          "type": "uint256"
        }
      ],
      "stateMutability": "view",
      "type": "function"
    },
    {
      "inputs": [
        {
          "internalType": "address",
          "name": "from",
          "type": "address"
        },
        {
          "internalType": "address",
          "name": "to",
          "type": "address"
        },
        {
          "internalType": "uint256",
          "name": "tokenId",
          "type": "uint256"
        }
      ],
      "name": "transferFrom",
      "outputs": [],
      "stateMutability": "nonpayable",
      "type": "function"
    },
    {
      "inputs": [
        {
          "internalType": "address",
          "name": "newOwner",
          "type": "address"
        }
      ],
      "name": "transferOwnership",
      "outputs": [],
      "stateMutability": "nonpayable",
      "type": "function"
    },
    {
      "inputs": [
        {
          "internalType": "uint256",
          "name": "_count",
          "type": "uint256"
        }
      ],
      "name": "setMaximumAllowedTokens",
      "outputs": [],
      "stateMutability": "nonpayable",
      "type": "function"
    },
    {
      "inputs": [
        {
          "internalType": "uint256",
          "name": "_count",
          "type": "uint256"
        }
      ],
      "name": "setMaximumAllowedTokensPerWallet",
      "outputs": [],
      "stateMutability": "nonpayable",
      "type": "function"
    },
    {
      "inputs": [
        {
          "internalType": "bool",
          "name": "val",
          "type": "bool"
        }
      ],
      "name": "setMintActive",
      "outputs": [],
      "stateMutability": "nonpayable",
      "type": "function"
    },
    {
      "inputs": [
        {
          "internalType": "uint256",
          "name": "maxMintSupply",
          "type": "uint256"
        }
      ],
      "name": "setMaxMintSupply",
      "outputs": [],
      "stateMutability": "nonpayable",
      "type": "function"
    },
    {
      "inputs": [
        {
          "internalType": "bool",
          "name": "_isPreSaleMintActive",
          "type": "bool"
        }
      ],
      "name": "setIsPreSaleMintActive",
      "outputs": [],
      "stateMutability": "nonpayable",
      "type": "function"
    },
    {
      "inputs": [
        {
          "internalType": "uint256",
          "name": "maxMint",
          "type": "uint256"
        }
      ],
      "name": "setAllowListMaxMint",
      "outputs": [],
      "stateMutability": "nonpayable",
      "type": "function"
    },
    {
      "inputs": [
        {
          "internalType": "address[]",
          "name": "addresses",
          "type": "address[]"
        }
      ],
      "name": "addToAllowList",
      "outputs": [],
      "stateMutability": "nonpayable",
      "type": "function"
    },
    {
      "inputs": [
        {
          "internalType": "address",
          "name": "addr",
          "type": "address"
        }
      ],
      "name": "checkIfOnAllowList",
      "outputs": [
        {
          "internalType": "bool",
          "name": "",
          "type": "bool"
        }
      ],
      "stateMutability": "view",
      "type": "function"
    },
    {
      "inputs": [
        {
          "internalType": "address[]",
          "name": "addresses",
          "type": "address[]"
        }
      ],
      "name": "removeFromAllowList",
      "outputs": [],
      "stateMutability": "nonpayable",
      "type": "function"
    },
    {
      "inputs": [
        {
          "internalType": "address",
          "name": "owner",
          "type": "address"
        }
      ],
      "name": "allowListClaimedBy",
      "outputs": [
        {
          "internalType": "uint256",
          "name": "",
          "type": "uint256"
        }
      ],
      "stateMutability": "view",
      "type": "function"
    },
    {
      "inputs": [
        {
          "internalType": "uint256",
          "name": "val",
          "type": "uint256"
        }
      ],
      "name": "setReserveAtATime",
      "outputs": [],
      "stateMutability": "nonpayable",
      "type": "function"
    },
    {
      "inputs": [
        {
          "internalType": "uint256",
          "name": "val",
          "type": "uint256"
        }
      ],
      "name": "setMaxReserve",
      "outputs": [],
      "stateMutability": "nonpayable",
      "type": "function"
    },
    {
      "inputs": [
        {
          "internalType": "uint256",
          "name": "_price",
          "type": "uint256"
        }
      ],
      "name": "setMintPrice",
      "outputs": [],
      "stateMutability": "nonpayable",
      "type": "function"
    },
    {
      "inputs": [
        {
          "internalType": "uint256",
          "name": "_price",
          "type": "uint256"
        }
      ],
      "name": "setPreSaleMintPrice",
      "outputs": [],
      "stateMutability": "nonpayable",
      "type": "function"
    },
    {
      "inputs": [
        {
          "internalType": "string",
          "name": "baseURI",
          "type": "string"
        }
      ],
      "name": "setBaseURI",
      "outputs": [],
      "stateMutability": "nonpayable",
      "type": "function"
    },
    {
      "inputs": [],
      "name": "getMaximumAllowedTokens",
      "outputs": [
        {
          "internalType": "uint256",
          "name": "",
          "type": "uint256"
        }
      ],
      "stateMutability": "view",
      "type": "function"
    },
    {
      "inputs": [],
      "name": "getMintPrice",
      "outputs": [
        {
          "internalType": "uint256",
          "name": "",
          "type": "uint256"
        }
      ],
      "stateMutability": "view",
      "type": "function"
    },
    {
      "inputs": [],
      "name": "getPreSaleMintPrice",
      "outputs": [
        {
          "internalType": "uint256",
          "name": "",
          "type": "uint256"
        }
      ],
      "stateMutability": "view",
      "type": "function"
    },
    {
      "inputs": [],
      "name": "getIsClosedMintForever",
      "outputs": [
        {
          "internalType": "bool",
          "name": "",
          "type": "bool"
        }
      ],
      "stateMutability": "view",
      "type": "function"
    },
    {
      "inputs": [],
      "name": "setIsClosedMintForever",
      "outputs": [],
      "stateMutability": "nonpayable",
      "type": "function"
    },
    {
      "inputs": [],
      "name": "getReserveAtATime",
      "outputs": [
        {
          "internalType": "uint256",
          "name": "",
          "type": "uint256"
        }
      ],
      "stateMutability": "view",
      "type": "function"
    },
    {
      "inputs": [],
      "name": "getTotalSupply",
      "outputs": [
        {
          "internalType": "uint256",
          "name": "",
          "type": "uint256"
        }
      ],
      "stateMutability": "view",
      "type": "function"
    },
    {
      "inputs": [],
      "name": "getContractOwner",
      "outputs": [
        {
          "internalType": "address",
          "name": "",
          "type": "address"
        }
      ],
      "stateMutability": "view",
      "type": "function"
    },
    {
      "inputs": [],
      "name": "reserveNft",
      "outputs": [],
      "stateMutability": "nonpayable",
      "type": "function"
    },
    {
      "inputs": [
        {
          "internalType": "address",
          "name": "_walletAddress",
          "type": "address"
        },
        {
          "internalType": "uint256",
          "name": "_count",
          "type": "uint256"
        }
      ],
      "name": "reserveToCustomWallet",
      "outputs": [],
      "stateMutability": "nonpayable",
      "type": "function"
    },
    {
      "inputs": [
        {
          "internalType": "address",
          "name": "_to",
          "type": "address"
        },
        {
          "internalType": "uint256",
          "name": "_count",
          "type": "uint256"
        }
      ],
      "name": "mint",
      "outputs": [],
      "stateMutability": "payable",
      "type": "function"
    },
    {
      "inputs": [
        {
          "internalType": "uint256",
          "name": "_count",
          "type": "uint256"
        }
      ],
      "name": "preSaleMint",
      "outputs": [],
      "stateMutability": "payable",
      "type": "function"
    },
    {
      "inputs": [
        {
          "internalType": "address",
          "name": "_owner",
          "type": "address"
        }
      ],
      "name": "walletOfOwner",
      "outputs": [
        {
          "internalType": "uint256[]",
          "name": "",
          "type": "uint256[]"
        }
      ],
      "stateMutability": "view",
      "type": "function"
    },
    {
      "inputs": [],
      "name": "withdraw",
      "outputs": [],
      "stateMutability": "nonpayable",
      "type": "function"
    }
  ],
  "bytecode": "0x6080604052681b36a6444a3e180000600b556812290f15180bdc0000600c556032600d556000600e556064600f556011805462ffffff191690556107d0601255600260138190556014556001601555601680546001600160a01b03191673f52c18eb32e89e7cc6eb9cc586034d3c5b6045dd1790553480156200008157600080fd5b506040516200378338038062003783833981016040819052620000a4916200027d565b604080518082018252600e81526d536b7950756e6b204c656761637960901b60208083019182528351808501909452600384526214d41360ea1b908401528151919291620000f591600091620001d7565b5080516200010b906001906020840190620001d7565b50505062000128620001226200013a60201b60201c565b6200013e565b620001338162000190565b50620003a6565b3390565b600a80546001600160a01b038381166001600160a01b0319831681179093556040519116919082907f8be0079c531659141344cd1fd0a4f28419497f9722a3daafe3b4186f6b6457e090600090a35050565b336200019b620001c8565b6001600160a01b031614620001af57600080fd5b8051620001c4906010906020840190620001d7565b5050565b600a546001600160a01b031690565b828054620001e59062000353565b90600052602060002090601f01602090048101928262000209576000855562000254565b82601f106200022457805160ff191683800117855562000254565b8280016001018555821562000254579182015b828111156200025457825182559160200191906001019062000237565b506200026292915062000266565b5090565b5b8082111562000262576000815560010162000267565b6000602080838503121562000290578182fd5b82516001600160401b0380821115620002a7578384fd5b818501915085601f830112620002bb578384fd5b815181811115620002d057620002d062000390565b604051601f8201601f19908116603f01168101908382118183101715620002fb57620002fb62000390565b81604052828152888684870101111562000313578687fd5b8693505b8284101562000336578484018601518185018701529285019262000317565b828411156200034757868684830101525b98975050505050505050565b6002810460018216806200036857607f821691505b602082108114156200038a57634e487b7160e01b600052602260045260246000fd5b50919050565b634e487b7160e01b600052604160045260246000fd5b6133cd80620003b66000396000f3fe6080604052600436106103755760003560e01c80637263cfe2116101d1578063a7f93ebd11610102578063e985e9c5116100a0578063f132dc291161006f578063f132dc291461094f578063f2fde38b14610964578063f4a0a52814610984578063f6c9d9e3146109a457610375565b8063e985e9c5146108da578063ea6eb836146108fa578063ec7d09911461091a578063ee1cc9441461092f57610375565b8063c4e41b22116100dc578063c4e41b221461087b578063c87b56dd14610890578063cadf8818146108b0578063e7b62d96146108c557610375565b8063a7f93ebd14610831578063ad06d75814610846578063b88d4fde1461085b57610375565b80638da5cb5b1161016f5780639a3bf728116101495780639a3bf728146107c75780639ccb0fea146107dc578063a22cb465146107f1578063a51312c81461081157610375565b80638da5cb5b14610788578063932ecebc1461079d57806395d89b41146107b257610375565b80637835c635116101ab5780637835c6351461072b5780637a6685f11461073e5780637d26f4701461075e5780637f44ab2f1461077357610375565b80637263cfe2146106cb5780637389fbb7146106eb57806377b501b91461070b57610375565b806342842e0e116102ab57806356a87caa116102495780636817c76c116102235780636817c76c1461066c57806370a0823114610681578063715018a6146106a157806371e3500c146106b657610375565b806356a87caa146106175780635b92ac0d146106375780636352211e1461064c57610375565b80634d0550de116102855780634d0550de146105a25780634dfea627146105b75780634f6ccce7146105d757806355f804b3146105f757610375565b806342842e0e14610540578063438b630014610560578063442890d51461058d57610375565b806323b872dd116103185780633b9ee7e4116102f25780633b9ee7e4146104d85780633ccfd60b146104f85780633cfac5701461050d57806340c10f191461052d57610375565b806323b872dd146104785780632c1205f4146104985780632f745c59146104b857610375565b8063081812fc11610354578063081812fc146103ff578063095ea7b31461042c57806318160ddd1461044e57806321a911f81461046357610375565b806208ffdd1461037a57806301ffc9a7146103b057806306fdde03146103dd575b600080fd5b34801561038657600080fd5b5061039a61039536600461264a565b6109c4565b6040516103a79190613207565b60405180910390f35b3480156103bc57600080fd5b506103d06103cb366004612825565b610a15565b6040516103a791906129ab565b3480156103e957600080fd5b506103f2610a40565b6040516103a791906129b6565b34801561040b57600080fd5b5061041f61041a3660046128a3565b610ad2565b6040516103a79190612916565b34801561043857600080fd5b5061044c610447366004612773565b610b15565b005b34801561045a57600080fd5b5061039a610bad565b34801561046f57600080fd5b5061039a610bb3565b34801561048457600080fd5b5061044c610493366004612696565b610bb9565b3480156104a457600080fd5b506103d06104b336600461264a565b610bf1565b3480156104c457600080fd5b5061039a6104d3366004612773565b610c0f565b3480156104e457600080fd5b5061044c6104f33660046128a3565b610c61565b34801561050457600080fd5b5061044c610c82565b34801561051957600080fd5b5061044c61052836600461280b565b610d47565b61044c61053b366004612773565b610d7d565b34801561054c57600080fd5b5061044c61055b366004612696565b610f6e565b34801561056c57600080fd5b5061058061057b36600461264a565b610f89565b6040516103a79190612967565b34801561059957600080fd5b5061041f611047565b3480156105ae57600080fd5b5061039a611056565b3480156105c357600080fd5b5061044c6105d23660046128a3565b61105c565b3480156105e357600080fd5b5061039a6105f23660046128a3565b61107d565b34801561060357600080fd5b5061044c61061236600461285d565b6110d8565b34801561062357600080fd5b5061044c6106323660046128a3565b611107565b34801561064357600080fd5b506103d0611128565b34801561065857600080fd5b5061041f6106673660046128a3565b611131565b34801561067857600080fd5b5061039a611166565b34801561068d57600080fd5b5061039a61069c36600461264a565b61116c565b3480156106ad57600080fd5b5061044c6111b0565b3480156106c257600080fd5b5061044c6111fb565b3480156106d757600080fd5b5061044c6106e636600461279c565b6112bf565b3480156106f757600080fd5b5061044c6107063660046128a3565b61147d565b34801561071757600080fd5b5061044c610726366004612773565b61149e565b61044c6107393660046128a3565b611549565b34801561074a57600080fd5b5061044c6107593660046128a3565b611721565b34801561076a57600080fd5b506103d0611742565b34801561077f57600080fd5b5061039a611751565b34801561079457600080fd5b5061041f611757565b3480156107a957600080fd5b5061044c611766565b3480156107be57600080fd5b506103f2611795565b3480156107d357600080fd5b5061039a6117a4565b3480156107e857600080fd5b506103d06117aa565b3480156107fd57600080fd5b5061044c61080c36600461274a565b6117b8565b34801561081d57600080fd5b5061044c61082c36600461279c565b6117ca565b34801561083d57600080fd5b5061039a6118c4565b34801561085257600080fd5b5061039a6118ca565b34801561086757600080fd5b5061044c6108763660046126d1565b6118ef565b34801561088757600080fd5b5061039a611928565b34801561089c57600080fd5b506103f26108ab3660046128a3565b611932565b3480156108bc57600080fd5b5061039a6119b5565b3480156108d157600080fd5b5061039a6119bb565b3480156108e657600080fd5b506103d06108f5366004612664565b6119c1565b34801561090657600080fd5b5061044c6109153660046128a3565b6119ef565b34801561092657600080fd5b5061039a611a10565b34801561093b57600080fd5b5061044c61094a36600461280b565b611a16565b34801561095b57600080fd5b506103d0611a7b565b34801561097057600080fd5b5061044c61097f36600461264a565b611a8a565b34801561099057600080fd5b5061044c61099f3660046128a3565b611afb565b3480156109b057600080fd5b5061044c6109bf3660046128a3565b611b1c565b60006001600160a01b0382166109f55760405162461bcd60e51b81526004016109ec90612efe565b60405180910390fd5b506001600160a01b0381166000908152601860205260409020545b919050565b60006001600160e01b0319821663780e9d6360e01b1480610a3a5750610a3a82611b3d565b92915050565b606060008054610a4f906132b5565b80601f0160208091040260200160405190810160405280929190818152602001828054610a7b906132b5565b8015610ac85780601f10610a9d57610100808354040283529160200191610ac8565b820191906000526020600020905b815481529060010190602001808311610aab57829003601f168201915b5050505050905090565b6000610add82611b7d565b610af95760405162461bcd60e51b81526004016109ec90612e46565b506000908152600460205260409020546001600160a01b031690565b6000610b2082611131565b9050806001600160a01b0316836001600160a01b03161415610b545760405162461bcd60e51b81526004016109ec90612fbb565b806001600160a01b0316610b66611b9a565b6001600160a01b03161480610b825750610b82816108f5611b9a565b610b9e5760405162461bcd60e51b81526004016109ec90612d21565b610ba88383611b9e565b505050565b60085490565b600c5490565b610bca610bc4611b9a565b82611c0c565b610be65760405162461bcd60e51b81526004016109ec9061302c565b610ba8838383611c91565b6001600160a01b031660009081526017602052604090205460ff1690565b6000610c1a8361116c565b8210610c385760405162461bcd60e51b81526004016109ec90612a6e565b506001600160a01b03919091166000908152600660209081526040808320938352929052205490565b33610c6a611757565b6001600160a01b031614610c7d57600080fd5b600c55565b33610c8b611757565b6001600160a01b031614610c9e57600080fd5b60165447906001600160a01b03166108fc612710610cbc8482613253565b610cc6919061323f565b6040518115909202916000818181858888f19350505050158015610cee573d6000803e3d6000fd5b50610cf7611757565b6001600160a01b03166108fc612710610d11846000613253565b610d1b919061323f565b6040518115909202916000818181858888f19350505050158015610d43573d6000803e3d6000fd5b5050565b33610d50611757565b6001600160a01b031614610d6357600080fd5b601180549115156101000261ff0019909216919091179055565b601254610d88610bad565b1115610da65760405162461bcd60e51b81526004016109ec90612c31565b610dae611757565b6001600160a01b0316336001600160a01b031614610de85760115460ff16610de85760405162461bcd60e51b81526004016109ec90612a37565b610df0611757565b6001600160a01b0316826001600160a01b031614610e3d5760145481610e158461116c565b610e1f9190613227565b1115610e3d5760405162461bcd60e51b81526004016109ec90612bfa565b60125481610e49610bad565b610e539190613227565b1115610e715760405162461bcd60e51b81526004016109ec90612ffc565b601254610e7c610bad565b1115610e9a5760405162461bcd60e51b81526004016109ec90613100565b601354811115610ebc5760405162461bcd60e51b81526004016109ec90612f84565b60115462010000900460ff1615610ee55760405162461bcd60e51b81526004016109ec90612bcd565b80600b54610ef39190613253565b341015610f125760405162461bcd60e51b81526004016109ec9061312d565b60005b81811015610ba857600080516020613378833981519152610f34610bad565b84604051610f43929190613210565b60405180910390a1610f5c83610f57610bad565b611dc4565b80610f66816132f0565b915050610f15565b610ba8838383604051806020016040528060008152506118ef565b60606000610f968361116c565b905060008167ffffffffffffffff811115610fc157634e487b7160e01b600052604160045260246000fd5b604051908082528060200260200182016040528015610fea578160200160208202803683370190505b50905060005b8281101561103f576110028582610c0f565b82828151811061102257634e487b7160e01b600052603260045260246000fd5b602090810291909101015280611037816132f0565b915050610ff0565b509392505050565b6000611051611757565b905090565b60125481565b33611065611757565b6001600160a01b03161461107857600080fd5b601355565b6000611087610bad565b82106110a55760405162461bcd60e51b81526004016109ec9061307d565b600882815481106110c657634e487b7160e01b600052603260045260246000fd5b90600052602060002001549050919050565b336110e1611757565b6001600160a01b0316146110f457600080fd5b8051610d43906010906020840190612514565b33611110611757565b6001600160a01b03161461112357600080fd5b600f55565b60115460ff1681565b6000818152600260205260408120546001600160a01b031680610a3a5760405162461bcd60e51b81526004016109ec90612dc8565b600b5481565b60006001600160a01b0382166111945760405162461bcd60e51b81526004016109ec90612d7e565b506001600160a01b031660009081526003602052604090205490565b6111b8611b9a565b6001600160a01b03166111c9611757565b6001600160a01b0316146111ef5760405162461bcd60e51b81526004016109ec90612ec9565b6111f96000611eab565b565b33611204611757565b6001600160a01b03161461121757600080fd5b600f54600e54111561123b5760405162461bcd60e51b81526004016109ec906129c9565b6000611245610bad565b905060005b600d54811015610d435760008051602061337883398151915261126d8284613227565b3360405161127c929190613210565b60405180910390a1611297336112928385613227565b611efd565b600e80549060006112a7836132f0565b919050555080806112b7906132f0565b91505061124a565b336112c8611757565b6001600160a01b0316146112db57600080fd5b60005b81811015610ba857600083838381811061130857634e487b7160e01b600052603260045260246000fd5b905060200201602081019061131d919061264a565b6001600160a01b031614156113445760405162461bcd60e51b81526004016109ec90612e92565b60016017600085858581811061136a57634e487b7160e01b600052603260045260246000fd5b905060200201602081019061137f919061264a565b6001600160a01b0316815260208101919091526040016000908120805460ff1916921515929092179091556018818585858181106113cd57634e487b7160e01b600052603260045260246000fd5b90506020020160208101906113e2919061264a565b6001600160a01b03166001600160a01b03168152602001908152602001600020541161140f57600061146a565b6018600084848481811061143357634e487b7160e01b600052603260045260246000fd5b9050602002016020810190611448919061264a565b6001600160a01b03166001600160a01b03168152602001908152602001600020545b5080611475816132f0565b9150506112de565b33611486611757565b6001600160a01b03161461149957600080fd5b601255565b336114a7611757565b6001600160a01b0316146114ba57600080fd5b600f54600e5411156114de5760405162461bcd60e51b81526004016109ec906129c9565b60006114e8610bad565b905060005b828110156115435760008051602061337883398151915261150e8284613227565b8560405161151d929190613210565b60405180910390a161153184611292610bad565b8061153b816132f0565b9150506114ed565b50505050565b601254611554610bad565b11156115725760405162461bcd60e51b81526004016109ec90612c31565b601154610100900460ff166115995760405162461bcd60e51b81526004016109ec906130c9565b3360009081526017602052604090205460ff166115c85760405162461bcd60e51b81526004016109ec90612a00565b6012546115d3610bad565b106115f05760405162461bcd60e51b81526004016109ec9061319b565b6015548111156116125760405162461bcd60e51b81526004016109ec906131d2565b60155433600090815260186020526040902054611630908390613227565b111561164e5760405162461bcd60e51b81526004016109ec90613164565b80600c5461165c9190613253565b34101561167b5760405162461bcd60e51b81526004016109ec9061312d565b60115462010000900460ff16156116a45760405162461bcd60e51b81526004016109ec90612bcd565b60005b81811015610d43573360009081526018602052604081208054600192906116cf908490613227565b9091555060008051602061337883398151915290506116ec610bad565b336040516116fb929190613210565b60405180910390a161170f33610f57610bad565b80611719816132f0565b9150506116a7565b3361172a611757565b6001600160a01b03161461173d57600080fd5b601555565b60115462010000900460ff1681565b60155481565b600a546001600160a01b031690565b3361176f611757565b6001600160a01b03161461178257600080fd5b6011805462ff0000191662010000179055565b606060018054610a4f906132b5565b60135481565b601154610100900460ff1681565b610d436117c3611b9a565b8383611f17565b336117d3611757565b6001600160a01b0316146117e657600080fd5b60005b81811015610ba857600083838381811061181357634e487b7160e01b600052603260045260246000fd5b9050602002016020810190611828919061264a565b6001600160a01b0316141561184f5760405162461bcd60e51b81526004016109ec90612e92565b60006017600085858581811061187557634e487b7160e01b600052603260045260246000fd5b905060200201602081019061188a919061264a565b6001600160a01b031681526020810191909152604001600020805460ff1916911515919091179055806118bc816132f0565b9150506117e9565b600b5490565b6000336118d5611757565b6001600160a01b0316146118e857600080fd5b5060135490565b6119006118fa611b9a565b83611c0c565b61191c5760405162461bcd60e51b81526004016109ec9061302c565b61154384848484611fba565b6000611051610bad565b606061193d82611b7d565b6119595760405162461bcd60e51b81526004016109ec90612f35565b6000611963611fed565b9050600081511161198357604051806020016040528060008152506119ae565b8061198d84611ffc565b60405160200161199e9291906128e7565b6040516020818303038152906040525b9392505050565b60145481565b600d5490565b6001600160a01b03918216600090815260056020908152604080832093909416825291909152205460ff1690565b336119f8611757565b6001600160a01b031614611a0b57600080fd5b601455565b600c5481565b33611a1f611757565b6001600160a01b031614611a3257600080fd5b6011805460ff19168215151790556040517f58655b75d3df612fe99ead00dbf0812d415d35078fe06217a94c0818bb13967f90611a709083906129ab565b60405180910390a150565b60115462010000900460ff1690565b611a92611b9a565b6001600160a01b0316611aa3611757565b6001600160a01b031614611ac95760405162461bcd60e51b81526004016109ec90612ec9565b6001600160a01b038116611aef5760405162461bcd60e51b81526004016109ec90612b0b565b611af881611eab565b50565b33611b04611757565b6001600160a01b031614611b1757600080fd5b600b55565b33611b25611757565b6001600160a01b031614611b3857600080fd5b600d55565b60006001600160e01b031982166380ac58cd60e01b1480611b6e57506001600160e01b03198216635b5e139f60e01b145b80610a3a5750610a3a82612117565b6000908152600260205260409020546001600160a01b0316151590565b3390565b600081815260046020526040902080546001600160a01b0319166001600160a01b0384169081179091558190611bd382611131565b6001600160a01b03167f8c5be1e5ebec7d5bd14f71427d1e84f3dd0314c0f7b2291e5b200ac8c7c3b92560405160405180910390a45050565b6000611c1782611b7d565b611c335760405162461bcd60e51b81526004016109ec90612cd5565b6000611c3e83611131565b9050806001600160a01b0316846001600160a01b03161480611c795750836001600160a01b0316611c6e84610ad2565b6001600160a01b0316145b80611c895750611c8981856119c1565b949350505050565b826001600160a01b0316611ca482611131565b6001600160a01b031614611cca5760405162461bcd60e51b81526004016109ec90612b51565b6001600160a01b038216611cf05760405162461bcd60e51b81526004016109ec90612c5a565b611cfb838383612130565b611d06600082611b9e565b6001600160a01b0383166000908152600360205260408120805460019290611d2f908490613272565b90915550506001600160a01b0382166000908152600360205260408120805460019290611d5d908490613227565b909155505060008181526002602052604080822080546001600160a01b0319166001600160a01b0386811691821790925591518493918716917fddf252ad1be2c89b69c2b068fc378daa952ba7f163c4a11628f55a4df523b3ef91a4610ba8838383610ba8565b6001600160a01b038216611dea5760405162461bcd60e51b81526004016109ec90612e11565b611df381611b7d565b15611e105760405162461bcd60e51b81526004016109ec90612b96565b611e1c60008383612130565b6001600160a01b0382166000908152600360205260408120805460019290611e45908490613227565b909155505060008181526002602052604080822080546001600160a01b0319166001600160a01b03861690811790915590518392907fddf252ad1be2c89b69c2b068fc378daa952ba7f163c4a11628f55a4df523b3ef908290a4610d4360008383610ba8565b600a80546001600160a01b038381166001600160a01b0319831681179093556040519116919082907f8be0079c531659141344cd1fd0a4f28419497f9722a3daafe3b4186f6b6457e090600090a35050565b610d438282604051806020016040528060008152506121b9565b816001600160a01b0316836001600160a01b03161415611f495760405162461bcd60e51b81526004016109ec90612c9e565b6001600160a01b0383811660008181526005602090815260408083209487168084529490915290819020805460ff1916851515179055517f17307eab39ab6107e8899845ad3d59bd9653f200f220920489ca2b5937696c3190611fad9085906129ab565b60405180910390a3505050565b611fc5848484611c91565b611fd1848484846121ec565b6115435760405162461bcd60e51b81526004016109ec90612ab9565b606060108054610a4f906132b5565b60608161202157506040805180820190915260018152600360fc1b6020820152610a10565b8160005b811561204b5780612035816132f0565b91506120449050600a8361323f565b9150612025565b60008167ffffffffffffffff81111561207457634e487b7160e01b600052604160045260246000fd5b6040519080825280601f01601f19166020018201604052801561209e576020820181803683370190505b5090505b8415611c89576120b3600183613272565b91506120c0600a8661330b565b6120cb906030613227565b60f81b8183815181106120ee57634e487b7160e01b600052603260045260246000fd5b60200101906001600160f81b031916908160001a905350612110600a8661323f565b94506120a2565b6001600160e01b031981166301ffc9a760e01b14919050565b61213b838383610ba8565b6001600160a01b0383166121575761215281612307565b61217a565b816001600160a01b0316836001600160a01b03161461217a5761217a838261234b565b6001600160a01b03821661219657612191816123e8565b610ba8565b826001600160a01b0316826001600160a01b031614610ba857610ba882826124c1565b6121c38383611dc4565b6121d060008484846121ec565b610ba85760405162461bcd60e51b81526004016109ec90612ab9565b6000612200846001600160a01b0316612505565b156122fc57836001600160a01b031663150b7a0261221c611b9a565b8786866040518563ffffffff1660e01b815260040161223e949392919061292a565b602060405180830381600087803b15801561225857600080fd5b505af1925050508015612288575060408051601f3d908101601f1916820190925261228591810190612841565b60015b6122e2573d8080156122b6576040519150601f19603f3d011682016040523d82523d6000602084013e6122bb565b606091505b5080516122da5760405162461bcd60e51b81526004016109ec90612ab9565b805181602001fd5b6001600160e01b031916630a85bd0160e11b149050611c89565b506001949350505050565b600880546000838152600960205260408120829055600182018355919091527ff3f7a9fe364faab93b216da50a3214154f22a0a2b415b23a84c8169e8b636ee30155565b600060016123588461116c565b6123629190613272565b6000838152600760205260409020549091508082146123b5576001600160a01b03841660009081526006602090815260408083208584528252808320548484528184208190558352600790915290208190555b5060009182526007602090815260408084208490556001600160a01b039094168352600681528383209183525290812055565b6008546000906123fa90600190613272565b6000838152600960205260408120546008805493945090928490811061243057634e487b7160e01b600052603260045260246000fd5b90600052602060002001549050806008838154811061245f57634e487b7160e01b600052603260045260246000fd5b60009182526020808320909101929092558281526009909152604080822084905585825281205560088054806124a557634e487b7160e01b600052603160045260246000fd5b6001900381819060005260206000200160009055905550505050565b60006124cc8361116c565b6001600160a01b039093166000908152600660209081526040808320868452825280832085905593825260079052919091209190915550565b6001600160a01b03163b151590565b828054612520906132b5565b90600052602060002090601f0160209004810192826125425760008555612588565b82601f1061255b57805160ff1916838001178555612588565b82800160010185558215612588579182015b8281111561258857825182559160200191906001019061256d565b50612594929150612598565b5090565b5b808211156125945760008155600101612599565b600067ffffffffffffffff808411156125c8576125c861334b565b604051601f8501601f19908116603f011681019082821181831017156125f0576125f061334b565b8160405280935085815286868601111561260957600080fd5b858560208301376000602087830101525050509392505050565b80356001600160a01b0381168114610a1057600080fd5b80358015158114610a1057600080fd5b60006020828403121561265b578081fd5b6119ae82612623565b60008060408385031215612676578081fd5b61267f83612623565b915061268d60208401612623565b90509250929050565b6000806000606084860312156126aa578081fd5b6126b384612623565b92506126c160208501612623565b9150604084013590509250925092565b600080600080608085870312156126e6578081fd5b6126ef85612623565b93506126fd60208601612623565b925060408501359150606085013567ffffffffffffffff81111561271f578182fd5b8501601f8101871361272f578182fd5b61273e878235602084016125ad565b91505092959194509250565b6000806040838503121561275c578182fd5b61276583612623565b915061268d6020840161263a565b60008060408385031215612785578182fd5b61278e83612623565b946020939093013593505050565b600080602083850312156127ae578182fd5b823567ffffffffffffffff808211156127c5578384fd5b818501915085601f8301126127d8578384fd5b8135818111156127e6578485fd5b86602080830285010111156127f9578485fd5b60209290920196919550909350505050565b60006020828403121561281c578081fd5b6119ae8261263a565b600060208284031215612836578081fd5b81356119ae81613361565b600060208284031215612852578081fd5b81516119ae81613361565b60006020828403121561286e578081fd5b813567ffffffffffffffff811115612884578182fd5b8201601f81018413612894578182fd5b611c89848235602084016125ad565b6000602082840312156128b4578081fd5b5035919050565b600081518084526128d3816020860160208601613289565b601f01601f19169290920160200192915050565b600083516128f9818460208801613289565b83519083019061290d818360208801613289565b01949350505050565b6001600160a01b0391909116815260200190565b6001600160a01b038581168252841660208201526040810183905260806060820181905260009061295d908301846128bb565b9695505050505050565b6020808252825182820181905260009190848201906040850190845b8181101561299f57835183529284019291840191600101612983565b50909695505050505050565b901515815260200190565b6000602082526119ae60208301846128bb565b6020808252601b908201527f4d61782052657365727665732074616b656e20616c7265616479210000000000604082015260600190565b6020808252601d908201527f596f7520617265206e6f74206f6e2074686520416c6c6f77204c697374000000604082015260600190565b6020808252601d908201527f53616c65206973206e6f74206163746976652063757272656e746c792e000000604082015260600190565b6020808252602b908201527f455243373231456e756d657261626c653a206f776e657220696e646578206f7560408201526a74206f6620626f756e647360a81b606082015260800190565b60208082526032908201527f4552433732313a207472616e7366657220746f206e6f6e20455243373231526560408201527131b2b4bb32b91034b6b83632b6b2b73a32b960711b606082015260800190565b60208082526026908201527f4f776e61626c653a206e6577206f776e657220697320746865207a65726f206160408201526564647265737360d01b606082015260800190565b60208082526025908201527f4552433732313a207472616e736665722066726f6d20696e636f72726563742060408201526437bbb732b960d91b606082015260800190565b6020808252601c908201527f4552433732313a20746f6b656e20616c7265616479206d696e74656400000000604082015260600190565b60208082526013908201527226b4b73a1021b637b9b2b2102337b932bb32b960691b604082015260600190565b60208082526018908201527f4d617820686f6c64696e672063617020726561636865642e0000000000000000604082015260600190565b6020808252600f908201526e29b0b632903430b99032b73232b21760891b604082015260600190565b60208082526024908201527f4552433732313a207472616e7366657220746f20746865207a65726f206164646040820152637265737360e01b606082015260800190565b60208082526019908201527f4552433732313a20617070726f766520746f2063616c6c657200000000000000604082015260600190565b6020808252602c908201527f4552433732313a206f70657261746f7220717565727920666f72206e6f6e657860408201526b34b9ba32b73a103a37b5b2b760a11b606082015260800190565b60208082526038908201527f4552433732313a20617070726f76652063616c6c6572206973206e6f74206f7760408201527f6e6572206e6f7220617070726f76656420666f7220616c6c0000000000000000606082015260800190565b6020808252602a908201527f4552433732313a2062616c616e636520717565727920666f7220746865207a65604082015269726f206164647265737360b01b606082015260800190565b60208082526029908201527f4552433732313a206f776e657220717565727920666f72206e6f6e657869737460408201526832b73a103a37b5b2b760b91b606082015260800190565b6020808252818101527f4552433732313a206d696e7420746f20746865207a65726f2061646472657373604082015260600190565b6020808252602c908201527f4552433732313a20617070726f76656420717565727920666f72206e6f6e657860408201526b34b9ba32b73a103a37b5b2b760a11b606082015260800190565b60208082526018908201527f43616e2774206164642061206e756c6c20616464726573730000000000000000604082015260600190565b6020808252818101527f4f776e61626c653a2063616c6c6572206973206e6f7420746865206f776e6572604082015260600190565b6020808252601e908201527f5a65726f2061646472657373206e6f74206f6e20416c6c6f77204c6973740000604082015260600190565b6020808252602f908201527f4552433732314d657461646174613a2055524920717565727920666f72206e6f60408201526e3732bc34b9ba32b73a103a37b5b2b760891b606082015260800190565b6020808252601e908201527f45786365656473206d6178696d756d20616c6c6f77656420746f6b656e730000604082015260600190565b60208082526021908201527f4552433732313a20617070726f76616c20746f2063757272656e74206f776e656040820152603960f91b606082015260800190565b6020808252601690820152752a37ba30b61039bab838363c9032bc31b2b2b232b21760511b604082015260600190565b60208082526031908201527f4552433732313a207472616e736665722063616c6c6572206973206e6f74206f6040820152701ddb995c881b9bdc88185c1c1c9bdd9959607a1b606082015260800190565b6020808252602c908201527f455243373231456e756d657261626c653a20676c6f62616c20696e646578206f60408201526b7574206f6620626f756e647360a01b606082015260800190565b6020808252601b908201527f5072652053616c65204d696e74206973206e6f74206163746976650000000000604082015260600190565b6020808252601390820152722a37ba30b61039bab838363c9039b832b73a1760691b604082015260600190565b6020808252601b908201527f496e7375666669656e742045544820616d6f756e742073656e742e0000000000604082015260600190565b6020808252601c908201527f50757263686173652065786365656473206d617820616c6c6f77656400000000604082015260600190565b6020808252601b908201527f416c6c20746f6b656e732068617665206265656e206d696e7465640000000000604082015260600190565b6020808252818101527f43616e6e6f742070757263686173652074686973206d616e7920746f6b656e73604082015260600190565b90815260200190565b9182526001600160a01b0316602082015260400190565b6000821982111561323a5761323a61331f565b500190565b60008261324e5761324e613335565b500490565b600081600019048311821515161561326d5761326d61331f565b500290565b6000828210156132845761328461331f565b500390565b60005b838110156132a457818101518382015260200161328c565b838111156115435750506000910152565b6002810460018216806132c957607f821691505b602082108114156132ea57634e487b7160e01b600052602260045260246000fd5b50919050565b60006000198214156133045761330461331f565b5060010190565b60008261331a5761331a613335565b500690565b634e487b7160e01b600052601160045260246000fd5b634e487b7160e01b600052601260045260246000fd5b634e487b7160e01b600052604160045260246000fd5b6001600160e01b031981168114611af857600080fdfe55f284809f4c5b7377fbe62f2feeb9686e3834dcae5f3ca955140fe6547cd355a2646970667358221220a536943c2660c2062b1c35eeb3eefa0a7220f578cd28aaafb66505329dad616c64736f6c63430008010033",
  "immutableReferences": {},
  "source": "// SPDX-License-Identifier: MIT\n// Made by: NFT Stack\n//          https://nftstack.info\n//\n\npragma solidity ^0.8.1;\n\nimport \"@openzeppelin/contracts/token/ERC721/extensions/ERC721Enumerable.sol\";\nimport \"@openzeppelin/contracts/access/Ownable.sol\";\n\ncontract SkyPunkLegacy is ERC721Enumerable, Ownable {\n  uint256 public mintPrice = 502 ether;\n  uint256 public preSaleMintPrice = 335 ether;\n\n  uint256 private reserveAtATime = 50;\n  uint256 private reservedCount = 0;\n  uint256 private maxReserveCount = 100;\n\n  string _baseTokenURI;\n\n  bool public isMintActive = false;\n  bool public isPreSaleMintActive = false;\n  bool public isClosedMintForever = false;\n\n  uint256 public maximumMintSupply = 2000;\n  uint256 public maximumAllowedTokensPerPurchase = 2;\n  uint256 public maximumAllowedTokensPerWallet = 2;\n  uint256 public allowListMaxMint = 1;\n\n  address private OtherAddress = 0xf52c18eB32e89e7cc6eB9Cc586034D3c5b6045dD;\n\n  mapping(address => bool) private _allowList;\n  mapping(address => uint256) private _allowListClaimed;\n\n  event AssetMinted(uint256 tokenId, address sender);\n  event SaleActivation(bool isMintActive);\n\n  constructor(string memory baseURI) ERC721(\"SkyPunk Legacy\", \"SPL\") {\n    setBaseURI(baseURI);\n  }\n\n  modifier saleIsOpen {\n    require(totalSupply() <= maximumMintSupply, \"Sale has ended.\");\n    _;\n  }\n\n  modifier onlyAuthorized() {\n    require(owner() == msg.sender);\n    _;\n  }\n\n  function setMaximumAllowedTokens(uint256 _count) public onlyAuthorized {\n    maximumAllowedTokensPerPurchase = _count;\n  }\n\n  function setMaximumAllowedTokensPerWallet(uint256 _count) public onlyAuthorized {\n    maximumAllowedTokensPerWallet = _count;\n  }\n\n  function setMintActive(bool val) public onlyAuthorized {\n    isMintActive = val;\n    emit SaleActivation(val);\n  }\n\n  function setMaxMintSupply(uint256 maxMintSupply) external  onlyAuthorized {\n    maximumMintSupply = maxMintSupply;\n  }\n\n  function setIsPreSaleMintActive(bool _isPreSaleMintActive) external onlyAuthorized {\n    isPreSaleMintActive = _isPreSaleMintActive;\n  }\n\n  function setAllowListMaxMint(uint256 maxMint) external  onlyAuthorized {\n    allowListMaxMint = maxMint;\n  }\n\n  function addToAllowList(address[] calldata addresses) external onlyAuthorized {\n    for (uint256 i = 0; i < addresses.length; i++) {\n      require(addresses[i] != address(0), \"Can't add a null address\");\n      _allowList[addresses[i]] = true;\n      _allowListClaimed[addresses[i]] > 0 ? _allowListClaimed[addresses[i]] : 0;\n    }\n  }\n\n  function checkIfOnAllowList(address addr) external view returns (bool) {\n    return _allowList[addr];\n  }\n\n  function removeFromAllowList(address[] calldata addresses) external onlyAuthorized {\n    for (uint256 i = 0; i < addresses.length; i++) {\n      require(addresses[i] != address(0), \"Can't add a null address\");\n      _allowList[addresses[i]] = false;\n    }\n  }\n\n  function allowListClaimedBy(address owner) external view returns (uint256){\n    require(owner != address(0), 'Zero address not on Allow List');\n    return _allowListClaimed[owner];\n  }\n\n  function setReserveAtATime(uint256 val) public onlyAuthorized {\n    reserveAtATime = val;\n  }\n\n  function setMaxReserve(uint256 val) public onlyAuthorized {\n    maxReserveCount = val;\n  }\n\n  function setMintPrice(uint256 _price) public onlyAuthorized {\n    mintPrice = _price;\n  }\n\n  function setPreSaleMintPrice(uint256 _price) public onlyAuthorized {\n    preSaleMintPrice = _price;\n  }\n\n  function setBaseURI(string memory baseURI) public onlyAuthorized {\n    _baseTokenURI = baseURI;\n  }\n\n  function getMaximumAllowedTokens() public view onlyAuthorized returns (uint256) {\n    return maximumAllowedTokensPerPurchase;\n  }\n\n  function getMintPrice() external view returns (uint256) {\n    return mintPrice;\n  }\n\n  function getPreSaleMintPrice() external view returns (uint256) {\n    return preSaleMintPrice;\n  }\n\n  function getIsClosedMintForever() external view returns (bool) {\n    return isClosedMintForever;\n  }\n\n  function setIsClosedMintForever() external onlyAuthorized {\n    isClosedMintForever = true;\n  }\n\n  function getReserveAtATime() external view returns (uint256) {\n    return reserveAtATime;\n  }\n\n  function getTotalSupply() external view returns (uint256) {\n    return totalSupply();\n  }\n\n  function getContractOwner() public view returns (address) {\n    return owner();\n  }\n\n  function _baseURI() internal view virtual override returns (string memory) {\n    return _baseTokenURI;\n  }\n\n  function reserveNft() public onlyAuthorized {\n    require(reservedCount <= maxReserveCount, \"Max Reserves taken already!\");\n    uint256 supply = totalSupply();\n    uint256 i;\n\n    for (i = 0; i < reserveAtATime; i++) {\n      emit AssetMinted(supply + i, msg.sender);\n      _safeMint(msg.sender, supply + i);\n      reservedCount++;\n    }\n  }\n\n  function reserveToCustomWallet(address _walletAddress, uint256 _count) public onlyAuthorized {\n    require(reservedCount <= maxReserveCount, \"Max Reserves taken already!\");\n\n    uint256 supply = totalSupply();\n    uint256 i;\n\n    for (i = 0; i < _count; i++) {\n      emit AssetMinted(supply + i, _walletAddress);\n      _safeMint(_walletAddress, totalSupply());\n    }\n  }\n\n  function mint(address _to, uint256 _count) public payable saleIsOpen {\n    if (msg.sender != owner()) {\n      require(isMintActive, \"Sale is not active currently.\");\n    }\n\n    if(_to != owner()) {\n      require(balanceOf(_to) + _count <= maximumAllowedTokensPerWallet, \"Max holding cap reached.\");\n    }\n\n    require(totalSupply() + _count <= maximumMintSupply, \"Total supply exceeded.\");\n    require(totalSupply() <= maximumMintSupply, \"Total supply spent.\");\n    require(\n      _count <= maximumAllowedTokensPerPurchase,\n      \"Exceeds maximum allowed tokens\"\n    );\n    require(!isClosedMintForever, \"Mint Closed Forever\");\n\n    require(msg.value >= mintPrice * _count, \"Insuffient ETH amount sent.\");\n\n    for (uint256 i = 0; i < _count; i++) {\n      emit AssetMinted(totalSupply(), _to);\n      _mint(_to, totalSupply());\n    }\n  }\n\n  function preSaleMint(uint256 _count) public payable saleIsOpen {\n    require(isPreSaleMintActive, 'Pre Sale Mint is not active');\n    require(_allowList[msg.sender], 'You are not on the Allow List');\n    require(totalSupply() < maximumMintSupply, 'All tokens have been minted');\n    require(_count <= allowListMaxMint, 'Cannot purchase this many tokens');\n    require(_allowListClaimed[msg.sender] + _count <= allowListMaxMint, 'Purchase exceeds max allowed');\n    require(msg.value >= preSaleMintPrice * _count, 'Insuffient ETH amount sent.');\n    require(!isClosedMintForever, 'Mint Closed Forever');\n\n    for (uint256 i = 0; i < _count; i++) {\n      _allowListClaimed[msg.sender] += 1;\n      emit AssetMinted(totalSupply(), msg.sender);\n      _mint(msg.sender, totalSupply());\n    }\n  }\n\n  function walletOfOwner(address _owner) external view returns(uint256[] memory) {\n    uint tokenCount = balanceOf(_owner);\n    uint256[] memory tokensId = new uint256[](tokenCount);\n\n    for(uint i = 0; i < tokenCount; i++){\n      tokensId[i] = tokenOfOwnerByIndex(_owner, i);\n    }\n    return tokensId;\n  }\n\n  function withdraw() external onlyAuthorized {\n    uint balance = address(this).balance;\n    payable(OtherAddress).transfer(balance * 10000 / 10000);\n    payable(owner()).transfer(balance * 0 / 10000);\n  }\n}",
  "sourcePath": "/Users/nftstack/Documents/GitHub/skypunk-legacy/contracts/SkyPunkLegacy.sol",
  "compiler": {
    "name": "solc",
    "version": "0.8.1+commit.df193b15.Emscripten.clang"
  },
  "schemaVersion": "3.4.7",
  "updatedAt": "2022-05-12T07:21:04.647Z",
  "devdoc": {
    "kind": "dev",
    "methods": {
      "approve(address,uint256)": {
        "details": "See {IERC721-approve}."
      },
      "balanceOf(address)": {
        "details": "See {IERC721-balanceOf}."
      },
      "getApproved(uint256)": {
        "details": "See {IERC721-getApproved}."
      },
      "isApprovedForAll(address,address)": {
        "details": "See {IERC721-isApprovedForAll}."
      },
      "name()": {
        "details": "See {IERC721Metadata-name}."
      },
      "owner()": {
        "details": "Returns the address of the current owner."
      },
      "ownerOf(uint256)": {
        "details": "See {IERC721-ownerOf}."
      },
      "renounceOwnership()": {
        "details": "Leaves the contract without owner. It will not be possible to call `onlyOwner` functions anymore. Can only be called by the current owner. NOTE: Renouncing ownership will leave the contract without an owner, thereby removing any functionality that is only available to the owner."
      },
      "safeTransferFrom(address,address,uint256)": {
        "details": "See {IERC721-safeTransferFrom}."
      },
      "safeTransferFrom(address,address,uint256,bytes)": {
        "details": "See {IERC721-safeTransferFrom}."
      },
      "setApprovalForAll(address,bool)": {
        "details": "See {IERC721-setApprovalForAll}."
      },
      "supportsInterface(bytes4)": {
        "details": "See {IERC165-supportsInterface}."
      },
      "symbol()": {
        "details": "See {IERC721Metadata-symbol}."
      },
      "tokenByIndex(uint256)": {
        "details": "See {IERC721Enumerable-tokenByIndex}."
      },
      "tokenOfOwnerByIndex(address,uint256)": {
        "details": "See {IERC721Enumerable-tokenOfOwnerByIndex}."
      },
      "tokenURI(uint256)": {
        "details": "See {IERC721Metadata-tokenURI}."
      },
      "totalSupply()": {
        "details": "See {IERC721Enumerable-totalSupply}."
      },
      "transferFrom(address,address,uint256)": {
        "details": "See {IERC721-transferFrom}."
      },
      "transferOwnership(address)": {
        "details": "Transfers ownership of the contract to a new account (`newOwner`). Can only be called by the current owner."
      }
    },
    "version": 1
  },
  "userdoc": {
    "kind": "user",
    "methods": {},
    "version": 1
  }
}